:100000000C9458000C9475000C9475000C947500B9
:100010000C9475000C9475000C9475000C9475008C
:100020000C9475000C9475000C9475000C94D60615
:100030000C9475000C9475000C9475000C9475006C
:100040000C9475000C9475000C9475000C9475005C
:100050000C9475000C9475000C9475000C9475004C
:100060000C9475000C947500000108000604000152
:10007000415652000000000000545558100124C0A1
:10008000A80114C0A80101FFFFFF00E30004FA006B
:1000900001000100006382536353756E4D6F6E540F
:1000A00075655765645468754672695361740000DC
:1000B00011241FBECFEFD8E0DEBFCDBF11E0A0E01E
:1000C000B1E0E8EEFFE302C005900D92AC3AB10753
:1000D000D9F715E0ACEAB1E001C01D92AF31B1072C
:1000E000E1F70E9451080C94F21F0C9400002A982A
:1000F000962F9F71982B9EBD0DB407FEFDCF1EBCA1
:100100000DB407FEFDCF67FF04C01EBC0DB407FE93
:10011000FDCF2A9A8EB508952A986F71682B6EBD0F
:100120000DB407FEFDCF4EBD0DB407FEFDCF2A9ADC
:100130000895AC01FB012A988AE38EBD0DB407FE39
:10014000FDCFDF019A0108C01EBC0DB407FEFDCF34
:100150008EB58D932150304021153105A9F7E40F5C
:10016000F51F10822A9A08959C01FB012A988AE7BC
:100170008EBD0DB407FEFDCF08C080818EBD0DB4CD
:1001800007FEFDCF31962150304021153105A9F7EA
:100190002A9A08951F93CF93DF93182FC82FD0E08A
:1001A000C076D0708091AC0190E0C817D90791F06B
:1001B00080EA6FE143E00E948C0085E0D595C79509
:1001C0008A95E1F780E86FE14C2F0E948C00107651
:1001D0001093AC01DF91CF911F9108951F93182FB9
:1001E0000E94CA0080E0612F0E9477001F9108954D
:1001F0000F931F93182F062F0E94CA0080E4612FCF
:10020000402F0E948C001F910F910895682F84ED5C
:100210000E94F80082ED61E00E94F8008EE38A956A
:10022000F1F78AEE0E94EE0080FDFBCF82ED60E0E8
:100230000E94F80089ED0E94EE0090E008950F936F
:100240001F93982F162F072F84ED692F0E94F80017
:1002500086ED612F0E94F80087ED602F0E94F80064
:100260001EE303C0812F8A95F1F78AEE0E94EE000B
:1002700080FDF8CF1F910F910895682F677085E773
:100280000E94F8000895CF93DF93EC0184B18C6253
:1002900084B92A9A24982B982D9880E58CBD8DB529
:1002A00081608DBD8FEF60E04FEF0E948C00109257
:1002B000AC0184EF91E028E331E0F9013197F1F7E7
:1002C0000197D9F71092AE011092AD0188E060E07D
:1002D0000E94F80089E060E00E94F8008CE060E095
:1002E0000E94F8008DE060E00E94F8008AE06EEF66
:1002F0000E94F8008BE069E10E94F80084E06FEF53
:100300000E94F80085E069E10E94F80086E06FEF46
:100310000E94F80087E06FE10E94F80088E360E245
:100320000E94F80088E26FE30E94F80089E260E32F
:100330000E94F80080E369EF0E94F80081E367EF14
:100340000E94F80080EC6DE00E94F80081EC60E013
:100350000E94F80080E862EC42E30E948C0086EC88
:1003600062E10E94F80087EC6CE00E94F80084ECE7
:1003700062E10E94F8008AEC6EEE0E94F8008BECBD
:1003800065E00E94F80084EE68810E94F80085EE26
:1003900069810E94F80082EE6A810E94F80083EE73
:1003A0006B810E94F80080EE6C810E94F80081EE63
:1003B0006D810E94F80080E160E071E00E941F0101
:1003C0008FE10E94CA0080E86BE140EC0E948C0043
:1003D00080E86FE144E00E948C00DF91CF910895A6
:1003E000682F88E30E94F800089582E70E94EE00DB
:1003F000089581E10E94060120E0892B09F021E0A7
:10040000822F0895EF92FF920F931F938C017B012F
:100410009093B0018093AF0180E86FE140E80E94C3
:100420008C0085E39CE00197F1F780EA6FE140E8FA
:100430000E948C0082E06FEF0E94F80083E069E187
:100440000E94F800602F615086E00E94F800980139
:100450002150364E87E0632F0E94F8008AE760E063
:1004600040E00E948C00C801B7010E94B40080E8FF
:100470006FE148E00E948C001F910F91FF90EF9078
:1004800008950F931F9380E86FE140E80E948C006D
:1004900085E39CE00197F1F780EA6FE140E80E9474
:1004A0008C0082E06FEF0E94F80083E069E10E9417
:1004B000F8000091AF011091B001602F615086E00B
:1004C0000E94F8000150164E87E0612F0E94F8004C
:1004D0008AE760E040E00E948C0080E86FE148E03D
:1004E0000E948C001F910F9108958F929F92AF925E
:1004F000BF92CF92DF92EF92FF920F931F93CF9311
:10050000DF935C014B0189E30E94EE00882319F41C
:10051000C0E0D0E068C06091AD011091AE0180E014
:100520000E94F80081E0612F0E94F8008AE360E0F9
:100530000E947700182F8AE360E00E947700382F2E
:1005400020E0E12EFF24E22AF32AF092AE01E092AD
:10055000AD018AE360E00E947700C82E8AE360E084
:100560000E947700D82E8AE360E00E947700082F6F
:1005700010E08AE360E00E947700382F20E0202B13
:10058000312B27FD03C0C0E0D0E011C0CC2DD0E05E
:100590009D2D80E0C82BD92BC501019724978C177E
:1005A0009D0708F4EC01CE01B4010E949900870177
:1005B0000150104089E10F3F180738F08CE06EEFD2
:1005C0000E94F8008DE069E107C06E2D61508CE05B
:1005D0000E94F8008DE0612F0E94F80080E86EE133
:1005E00040E40E948C00CE01DF91CF911F910F91CA
:1005F000FF90EF90DF90CF90BF90AF909F908F9043
:100600000895AF92BF92CF92DF92EF92FF920F9335
:100610001F93CF93DF935C016A01DA011C9211965C
:100620001C92213081F4685070407B0100E010E0A2
:10063000685F7F4F21E130E040E050E0E20EF31EC2
:10064000041F151F15C0223021F0EE24FF2487015E
:100650000FC0685070407B0100E010E0685F7F4F82
:1006600086E090E0A0E0B0E0E80EF91E0A1F1B1F34
:10067000F501EB0116C0808190E0A0E0B0E0BA2F58
:10068000A92F982F8827218130E040E050E0822B6D
:10069000932BA42BB52BE80EF91E0A1F1B1F3296B5
:1006A0002297C230D10538F7FB01EE7FEA0DFB1D22
:1006B00060FF15C0808190E0A0E0B0E0BA2FA92FC4
:1006C000982F882708C02FEF3FEF40E050E0E2224C
:1006D000F32204231523E80EF91E0A1F1B1FC8016D
:1006E000AA27BB270097A105B10569F7C701809527
:1006F0009095D6019C938E2D809511968C93DF91C9
:10070000CF911F910F91FF90EF90DF90CF90BF900E
:10071000AF900895EF92FF920F931F93CF93DF93C3
:10072000EC017B016E307105C8F18C858830C1F514
:100730008D858823A9F56232710580F1AE01485E8E
:100740005F4F188D098DCE010E9664E170E020E0B8
:100750000E940103888D181709F5898D0817F1F497
:100760008AE2E816F104E0F08F898131C9F4AE0124
:10077000485D5F4F18A509A57EA160E08FA1680FB5
:10078000711D685F7F4FCE014A9621E00E940103F0
:1007900088A5181719F489A5081711F0EE24FF246D
:1007A000C701DF91CF911F910F91FF90EF900895B6
:1007B000A6ECB4E0E1EEF4E08CE001900D92815003
:1007C000E1F70895FC016A327105D0F08485883024
:1007D000B9F485858823A1F48685853489F4DF0101
:1007E000E6ECF4E05E969C915E978081981741F468
:1007F0001196319684E0EA3CF807A1F781E008956C
:1008000080E00895DC01E6ECF4E08D919081892789
:100810009085892311F080E00895319684E0EA3CC8
:10082000F80799F781E00895FC0169327105B0F08D
:100830008485883099F48585863081F4DF01969629
:10084000E6ECF4E09C918081981741F41196319682
:1008500084E0EA3CF807B1F781E0089580E008956C
:1008600020E0FC018589823009F421E0822F08957F
:1008700020E0FC018589813009F421E0822F089570
:100880009C018091B1019091B201892B11F080E01F
:1008900008957093C5046093C4043093C3042093F7
:1008A000C20481E090E09093B2018093B10181E0B5
:1008B00008958091B1019091B201039711F080E009
:1008C00008951092B2011092B10181E00895FC01E7
:1008D00085E486871786478B708B618B8091B30187
:1008E0009091B401928B838B01969093B401809385
:1008F000B30180E4848B158A868B8091C604909125
:10090000C704A091C804B091C904828F938FA48FAB
:10091000B58FCF010E9664E170E07896AF0120E0CC
:100920000E94010308959C012A5F3F4FDC01F901F9
:1009300086E001900D928150E1F7D901EBEDF4E0F2
:1009400086E001900D928150E1F70895CF93DF93F7
:10095000EC010E9493041C8A82E08D8BFE01ABEDBA
:10096000B4E0868980A38D91868B319684E0A13E88
:10097000B807B9F7FE017C96A6ECB4E080818287C7
:100980008D91819384E0AA3CB807C1F78AE290E098
:10099000BE010E940202DF91CF9108950F931F9331
:1009A000CF93DF93EC018B010E949304FE0190E052
:1009B000828D868F9F5F31969430D1F7CE01B8013A
:1009C0004F890E946704DF91CF911F910F91089585
:1009D0000F931F93CF93DF93EC018B016E50704008
:1009E0000E94CE041AA28CA1883F18F08DA18F5FBF
:1009F0008DA38CA1885F8CA3C801BE010E94020256
:100A0000DF91CF911F910F910895EF92FF920F9375
:100A10001F93CF93DF93EC017B018A0182E0453C79
:100A2000580710F004EC12E0B801645E7F4FCE016D
:100A30000E94CE049CA18AA18CA39AA39DA18BA104
:100A40008DA39BA3C80108969EA38FA3E114F10474
:100A500041F09E01265D3F4FC901B701A8010E94E8
:100A6000911E005F1F4FAE01485D5F4FCE014A9659
:100A7000B80121E00E940103C8014A96BE010E940C
:100A80000202DF91CF911F910F91FF90EF90089597
:100A9000CF93DF93DC01EC01FB0186E0019009922A
:100AA0008150E1F7ED012696EBEDF4E086E0019050
:100AB00009928150E1F788E01C968C931C971D9653
:100AC0001C92DF91CF9108950F931F93CF93DF93E3
:100AD000EC018B0161E071E00E94480586E08D87A2
:100AE000CE010E9668E670E048E050E00E94881E55
:100AF000ABEDB4E0FE018D91868B10A2319684E0BF
:100B0000A13EB807C1F7DE015C9620E030E0F801B5
:100B1000E20FF31F80811A968C931A97F901EA531A
:100B2000FB4F80818D932F5F3F4F2430310579F744
:100B30008AE290E0BE010E940202DF91CF911F91F4
:100B40000F910895CF93DF93EC0161157105B9F111
:100B50000E941404882399F18D89813019F4CE0103
:100B60000E94A60420E030E08D89823011F421E05B
:100B700030E040E050E08091B1019091B2010297E5
:100B800011F441E050E024233523232BC1F0DE0192
:100B900090E056968C915697E091C204F091C30470
:100BA0008193F093C304E093C2049F5F1196963043
:100BB00081F783E090E09093B2018093B10180913E
:100BC000B1019091B201019729F5A091C404B091AF
:100BD000C504E6ECF4E08D91908189279085892306
:100BE00031F4319684E0EA3CF807A9F706C08AECB4
:100BF00094E09093C5048093C4046091C404709100
:100C0000C504CE010E94640582E090E09093B20199
:100C10008093B101DF91CF910895882311F080EB8B
:100C200001C080E20E94F00108950F931F93CF93BB
:100C3000DF93EC018B0180E00E940D060C3511055D
:100C400009F086C08F89813109F082C08CA1882388
:100C500009F07EC08DA1893809F07AC08CA5813059
:100C600009F076C08DA5803109F072C08EA5882369
:100C700009F06EC08FA5813009F06AC08EA980325C
:100C800009F066C0C85ADF4F8881C855D040882314
:100C900009F05EC0C75ADF4F8881C955D040803205
:100CA00009F056C0C65ADF4F8881CA55D040882304
:100CB00009F04EC0C55ADF4F8881CB55D0408130F6
:100CC00009F046C0A3EDB4E0FE01F79637E321E05A
:100CD00091819154808181548295807F980F8C916D
:100CE000882321F0891320E0119605C0992319F07B
:100CF000903209F020E03E5F3296373549F72223E3
:100D000039F185E88CA71DA61FA681E089ABC45ADE
:100D1000DF4F1992199219928EE18993199286E008
:100D20008993199219928091C60489938091C7047E
:100D300089938091C80489938091C9048883C75698
:100D4000D040CE0160E070E047E550E00E9405052C
:100D5000DF91CF911F910F9108950E94F90108959D
:100D60008BED94E00E94430184E166E774E00E9409
:100D70001F010E94F5018093B50182E00E943D01B0
:100D800008959C01F999FECF32BD21BDF89A80B536
:100D900008959C01F999FECF1FBA32BD21BD60BDF7
:100DA0000FB6F894FA9AF99A0FBE08951F920F920F
:100DB0000FB60F9211248F939F93AF93BF9380919F
:100DC0001E058F5F80931E058091BB01882309F467
:100DD000299A8F5F8093BB018150833028F1109254
:100DE000BB018091170590911805A0911905B0914C
:100DF0001A050196A11DB11D809317059093180542
:100E0000A0931905B0931A0580911C058F5F8093FC
:100E10001C0580911B058F5F80931B058091160533
:100E20008F5F809316052998BF91AF919F918F9105
:100E30000F900FBE0F901F90189510928500109282
:100E40008400109280008CE0809381008FE2809378
:100E500089008FEA8093880082E080936F00789405
:100E600008950895CF93DF93DC01EB0140E090E01B
:100E700030E05AE08D91882339F44330E1F4332394
:100E8000D1F09B8381E018C0282F20532A3030F402
:100E9000959F902D1124920F31E00BC08E3259F4A2
:100EA000332349F0FE01E40FF11D90834F5F90E082
:100EB00030E04430F8F280E0DF91CF91089508955A
:100EC00021EC36E00E94E71E08959C01CB01B90198
:100ED00029EC36E00E94031F0895CF92DF92EF9233
:100EE000FF920F931F93CF93DF938C01E62ED72EA3
:100EF000862F972F9C01E90194E0F92E8EE2C82EEF
:100F0000FA94F801808190E0BE014AE050E00E942E
:100F10001F1FFE0101900020E9F73197EC1BFD0B2C
:100F2000CE0FDF1FF110C9920F5F1F4FFF2041F757
:100F30008E2D9D2DDF91CF911F910F91FF90EF90FE
:100F4000DF90CF9008950F931F93CF93DF93EC0121
:100F50008FA1682F70E0685070409EA180E0680FFC
:100F6000791F84E0403B580721F0455B5440B9F4B9
:100F70000CC08E01065D1F4FC80140E00E94F91DA4
:100F8000C80160E00E946F1D04C0CE018A960E94D5
:100F9000270BAC01CE0160E070E00E940505DF91F7
:100FA000CF911F910F910895CF92DF92EF92FF9210
:100FB0000F931F93CF93DF938C0127E1C22ED12C87
:100FC000C80ED91E60C08EEE92E0B8010E94750274
:100FD000EC01009729F0C801BE010E948A03EC01D0
:100FE000C801BE010E94451680910001843608F0B8
:100FF0004AC0C801BE010E94A205C801BE010E94EC
:101000001506209741F0C801BE010E94E203882323
:1010100011F4C0E0D0E0C801BE010E94DA122097AE
:1010200021F18091B9019091BA0101969093BA0192
:101030008093B901F6018081813041F4F80182A1E9
:10104000883021F4C801BE010E94E804F6018081C5
:10105000813159F4F801F4A0EE2485A1A701480FCD
:10106000511DC801BE010E94A3078091B7018130C4
:1010700051F482ED94E060E070E044E450E00E94BE
:1010800065071092B7018091B601882309F49BCFC0
:10109000DF91CF911F910F91FF90EF90DF90CF9054
:1010A00008951F9380E8809361001092610089E0A9
:1010B0009DE30197F1F752985698579A5F98219AB5
:1010C000299882ED94E060E070E044E450E00E94F2
:1010D00060078091D204813009F448C011E0109378
:1010E000D20483ED94E060E770E049E050E00E94B4
:1010F000881E8BED94E069E770E046E050E00E94C6
:10110000881E81EE94E06FE770E044E050E00E94BA
:10111000881E85EE94E063E870E044E050E00E94B1
:10112000881E89EE94E067E870E044E050E00E9499
:10113000881E80E091EE9093EE048093ED0485E4A8
:101140008093F00487E38093EF0481E38093F104BC
:1011500088E090E09093F3048093F2041093F404F9
:1011600085EF94E067E071E00E94B71E81E0809314
:1011700015050E94B00684EC99E028E331E0F901FE
:101180003197F1F70197D9F70E94F91C0E944D178A
:101190000E94D8030E941D07299A8CEB91E00E94BF
:1011A000D40784EC99E028E331E0F9013197F1F7B5
:1011B0000197D9F7E091AB04F091AC040995109236
:1011C000C5008AE18093C400E0ECF0E08081826099
:1011D000808384E28093C20088E18093C1000895F7
:1011E000982F8091C00085FFFCCF9093C600089592
:1011F0001F93182F8A3019F48DE00E94F008812F78
:101200000E94F0081F910895CF93DF93EC0103C073
:1012100021960E94F80888818823D1F7DF91CF9129
:101220000895CF93DF93EC0102C00E94F808FE01FD
:10123000219684918823C9F7DF91CF9108950F9368
:101240001F93DF93CF930F92CDB7DEB7982F829580
:101250008F7004E111E0F801E80FF11D808199839E
:101260000E94F80899819F70090F111DF801808173
:101270000E94F80880E20E94F8080F90CF91DF9159
:101280001F910F9108950F931F93CF93DF938C01BC
:10129000EB0106C0F80181918F010E941F0921977F
:1012A0002097C1F7DF91CF911F910F9108950F9370
:1012B0001F93CF93DF938C01EB010EC0F801908157
:1012C000892F80528F3510F08EE201C0892F0E9445
:1012D000F8080F5F1F4F2197209781F7DF91CF917B
:1012E0001F910F9108958091C000881F8827881F43
:1012F00008958091C00087FFFCCF8091C6000895BB
:1013000070E06827792720E041E250E1CB01969513
:10131000879560FF04C0BC016427752701C0BC012C
:101320002F5F283099F7CB010895FC014450CB0181
:10133000042E02C0969587950A94E2F78F70982F35
:10134000905D9A330CF0995F919314167CF3CF0162
:101350000895CF93DF93DC01EA01ED91FC911197A1
:101360008081843019F03196ED93FC93861711F04B
:1013700081E08883DF91CF910895CF93DF93EC01D3
:10138000DB01B9011C9280E090E00FC0243019F01D
:101390008F31910521F481E0FB0180830EC001961D
:1013A0003196F983E8832D931C92E881F98120819D
:1013B000241761F73196F983E883DF91CF9108957F
:1013C0009F92AF92BF92CF92DF92EF92FF920F93D4
:1013D0001F93CF93DF938C01A62EB42E7901C0E02A
:1013E000D0E099249394C42EDD24C7FCD09420C06F
:1013F000843021F481E0D7018C9324C03196D80148
:10140000ED93FC936B2D0E94D81C282F87FD0EC0F6
:10141000CC9DC001CD9D900DDC9D900D1124C22F5F
:10142000DD27C7FDD095C80FD91F02C0F7019082F4
:10143000D801ED91FC91119780818A15C9F63196FA
:10144000ED93FC93CE01DF91CF911F910F91FF900F
:10145000EF90DF90CF90BF90AF909F900895AF92A4
:10146000BF92CF92DF92EF92FF920F931F93CF9391
:10147000DF93B82E6A01282F392FC9018C01C0E0F3
:10148000D0E0E62EFF24E7FCF094AA24A39419C030
:10149000F801808160E10E94D81C282F87FD0DC0D3
:1014A000CE0144E0880F991F4A95E1F7C22FDD274E
:1014B000C7FDD095C80FD91F02C0F601A0820F5FEB
:1014C0001F4F802F8B1990E08E159F050CF3CE01D6
:1014D000DF91CF911F910F91FF90EF90DF90CF9010
:1014E000BF90AF900895AF92BF92CF92DF92EF92EC
:1014F000FF920F931F93DF93CF93CDB7DEB728975B
:101500000FB6F894DEBF0FBECDBFFC018B015C01AE
:101510000894A11CB11C77FF05C0109501951F4FC1
:101520008DE201C08BE280837501C42EDD24C7FCEF
:10153000D094C50160E370E0A6010E949A1EC80124
:101540008E010F5F1F4FB8014AE050E00E94401F1C
:10155000F80101900020E9F731978E2F801B082FAA
:1015600090E08C159D052CF47601E81AF90AEA0C36
:10157000FB1C10E0C701BE016F5F7F4F402F50E0A2
:101580000E94911E9701200F311FC90128960FB6A6
:10159000F894DEBF0FBECDBFCF91DF911F910F91A9
:1015A000FF90EF90DF90CF90BF90AF900895CF92D3
:1015B000DF92EF92FF920F931F93DF93CF93CDB7FC
:1015C000DEB728970FB6F894DEBF0FBECDBF6C0113
:1015D0008B01E42EFF24E7FCF09460E370E0A701A8
:1015E0000E949A1EC8018E010F5F1F4FB8014AE08A
:1015F00050E00E94401FF80101900020E9F7319768
:101600008E2F801B082F90E08E159F0524F4E81A7A
:10161000F90ACE0CDF1C10E0C601BE016F5F7F4FE0
:10162000402F50E00E94911E9601200F311FC901EA
:1016300028960FB6F894DEBF0FBECDBFCF91DF91D5
:101640001F910F91FF90EF90DF90CF9008954F92F0
:101650005F926F927F928F929F92AF92BF92CF9242
:10166000DF92EF92FF920F931F93DF93CF93CDB74B
:10167000DEB7E4970FB6F894DEBF0FBECDBF2C01E6
:101680001982680F791F1C821B82FC0105C03196EC
:10169000223011F4FC83EB83E617F70738F420813E
:1016A0002430A9F78B819C81892B89F38081843038
:1016B00041F58B819C81009721F10E96E817F9077F
:1016C00000F16CEFE62E6FEFF62EEE0EFF1EC70157
:1016D00064E0AE014F5F5F4F0E942F0A6C010B81E7
:1016E0001C818FEF9FEF05C0D8016D918D010E9485
:1016F00080090E151F05C0F38C159D0521F082E0B1
:1017000001C081E089838981882339F0AA24BB2420
:10171000EE24FF24CC24DD2423C08B819C8162E055
:101720008E010F5F1F4FA8010E942F0A5C018B8161
:101730009C8102969C838B8364E0A8010E942F0AFF
:101740007C018B819C8104969C838B8364E0A8013F
:101750000E942F0A6C018B819C8104969C838B8351
:10176000898192012F5F3F4F8823A1F082E0F2012F
:101770008083C9016BE270E048E00E94950961E056
:1017800070E040E10E94950960E070E040E10E9455
:10179000950961C482E0D2018C93C901B50148E08A
:1017A0000E949509B70140E10E949509B60140E108
:1017B0000E9495094C018F2D8330D8F08730C9F0F5
:1017C0008E010B5D1F4FC8016FE370E040E150E0F8
:1017D0000E949A1E82E090E062EA70E040E050E0F1
:1017E000980108E010E00E9437188DA18F3309F4AA
:1017F00074C5C701A0E0B0E0AC0133272227C601C1
:10180000A0E0B0E0280F391F4A1F5B1F2030B0E076
:101810003B07B6E04B07B1E05B0709F4F6C22130A5
:10182000E0E03E07E6E04E07E1E05E0708F070C04A
:101830002030F0E03F07F0E04F07F1E05F0709F4E8
:10184000DDC1213080E0380780E0480781E058079B
:1018500070F5203090E0390795E0490790E059078E
:1018600009F4F6C02130A0E03A07A5E04A07A0E05D
:101870005A0768F4211531054105510509F4C4C022
:10188000205030404140504009F02BC581C32030EA
:10189000E0E03E07E6E04E07E0E05E0709F415C130
:1018A000205030404740504009F01BC560C12030F7
:1018B00080E0380783E0480781E0580709F40FC249
:1018C000213090E0390793E0490791E0590780F40F
:1018D0002030A0E03A07A1E04A07A1E05A0709F446
:1018E000B0C1205030404240514009F0FAC4D3C149
:1018F0002030E0E03E07E4E04E07E1E05E0709F457
:1019000018C2205030404540514009F0EAC429C275
:10191000203080E0380780E0480782E0580709F46B
:101920009DC3213090E0390790E0490792E05907C4
:1019300088F52030A0E03A07A2E14A07A1E05A0763
:1019400009F42AC32130B0E03B07B2E14B07B1E014
:101950005B0780F42030E0E03E07E0E14E07E1E085
:101960005E0709F49AC2205030404141514009F0CD
:10197000B8C4D8C2203080E0380783E1480781E04E
:10198000580709F428C3205030404441514009F021
:10199000A8C435C32030A0E03A07A1E04A07A7E079
:1019A0005A0709F40BC42130B0E03B07B1E04B0704
:1019B000B7E05B0780F42130E0E03E07E0E04E074F
:1019C000E4E05E0709F490C32050304040405740A7
:1019D00009F087C4C1C3203080E0380783E048079E
:1019E00087E0580709F44EC4203090E0390799E9A0
:1019F000490799E9590709F470C420503040424022
:101A0000574009F06EC429C48E010D5F1F4FC801F5
:101A10006FE17E010894E11CF11CA7010E94A90955
:101A2000C8016FE140E197010E94E009892B29F08C
:101A30001092D20481E08093B701C40160E070E0AD
:101A400040E10E9495095C0181E08093B60150C499
:101A50008E010D5F1F4FC8016FE17E010894E11CEC
:101A6000F11CA7010E94A909C8016FE140E197019B
:101A70000E94E0098C01C40160E070E040E10E9436
:101A800095097C018FE1F70181937F01005B1F4F76
:101A9000C801880F991FBF0145E251E00E949019CB
:101AA000BC01009721F4C70160E070E006C0672F19
:101AB000772766956F5F7F4FC70140E10E949509C8
:101AC0005C018FE1D5018D93DBC38E010D5F1F4F4C
:101AD000C8016FE17E010894E11CF11CA7010E947E
:101AE000A909C8016FE140E197010E94E0095C018A
:101AF000C8016FE140E197010E94E0093C01898142
:101B0000882309F0A7C2C40160E070E040E10E94B0
:101B100095097C012FE1D22EFC01D1928F01CF01DA
:101B200067E271E00E94B71E9701295F3F4FC9012C
:101B300060E270E04AEF51E00E949A1E80E590E07A
:101B4000A80EB91EAA0CBB1C0894611C711C562D52
:101B5000550F82E090E0B50140E0980100E012E00E
:101B60000E94371881E0A82E82E0B82E49C18E016C
:101B70000D5F1F4FC8016FE17E010894E11CF11C4D
:101B8000A7010E94A909C8016FE140E197010E94E5
:101B9000E0096C01C8016FE140E197010E94E00992
:101BA0009C018981882309F055C259010894A11C20
:101BB000B11CBA2CAA24BB0CE0E5F0E0CE0EDF1E6F
:101BC000CC0CDD1CEE24FF24A7014A0D5B1D2B81EC
:101BD0003C812E0D3F1D82E090E0B60100E410E054
:101BE0000E94C317E00EF11EF0E0EF16F2E0FF06D0
:101BF00059F78B819C8180509E4F4CC1C40160E09D
:101C000070E040E10E9495098C01BFE1DB2EDC0110
:101C1000DD927D01CE010596BE016B5E7F4F0E9475
:101C20004A1BC701BE01675F7F4F4AE050E00E9438
:101C3000BE1EF801D386ACE0AA2EB12CA00EB11EB8
:101C400057C38E010D5F1F4FC8016FE17E010894DD
:101C5000E11CF11CA7010E94A909C8016DE24AE03C
:101C600097010E94E0096C01C8016DE24AE097010A
:101C70000E94E009B82EC8016FE14AE097010E9476
:101C8000E009482F8981882309F0E4C1C6016B2D42
:101C90000E949E1A7DC1C40160E070E040E10E9494
:101CA00095097C01FFE1BF2EDC01BD928D01E5E1CC
:101CB000CE2ED12CCC0EDD1ECE010596B6010E9493
:101CC0004A1BC801B60148E050E00E94BE1EF70161
:101CD000B1867AE0A72EB12CAE0CBF1C09C38E01D1
:101CE0000D5F1F4FC8016FE17E010894E11CF11CDC
:101CF000A7010E94A909C8016AE34AE097010E946E
:101D0000E009C82EC8016AE34AE097010E94E00991
:101D1000D82EC8016FE14AE097010E94E009482FE0
:101D20008981882309F096C18C2D6D2D0E94491A56
:101D30002FC188E00E942B1A0E94E8198C01C4016F
:101D400060E070E040E10E9495096FE1F62EFC0131
:101D5000F19204541140CF01B80143E00E94730A8C
:101D6000ADC18E010D5F1F4FC8016FE17E01089468
:101D7000E11CF11CA7010E94A909C8016FE140E123
:101D800097010E94E0095C01C8016FE140E1970101
:101D90000E94E009C82E8981882309F05BC1C40133
:101DA00060E070E040E10E9495097C015FE1D52E82
:101DB000FC01D1928F01CF0167E271E00E94B71E52
:101DC0009701295F3F4FC90160E270E04AEF50E0A0
:101DD0000E949A1EF7E0AF22BB2480E590E0A80E97
:101DE000B91EAA0CBB1C82E090E0B50140E05C2D5E
:101DF000980100E011E00E94371831E0A32EB32EC5
:101E0000AE0CBF1CD501DD923BC28E010D5F1F4F92
:101E1000C8016FE17E010894E11CF11CA7010E943A
:101E2000A909C8016FE140E197010E94E00927E09C
:101E3000A22EB12CA822B922C8016FE140E197017E
:101E40000E94E009982F8981882309F003C1D92EC7
:101E5000CC24E0E5F0E0AE0EBF1EAA0CBB1CEE24C5
:101E6000FF24A7014C0D5D1D2B813C812E0D3F1DD4
:101E700082E090E0B50100E410E00E94C317E00E9C
:101E8000F11EF0E0EF16F1E0FF0659F78B819C811F
:101E900080509F4F9C838B837BC08E010D5F1F4FB3
:101EA000C8016FE17E010894E11CF11CA7010E94AA
:101EB000A909C8016FE140E197010E94E0093C01D6
:101EC000C8016FE140E197010E94E0095C01C8018F
:101ED0006FE140E197010E94E0098C01898188232C
:101EE00009F0B8C0C40160E070E040E10E949509CB
:101EF000AFE1DA2EDC01DD927D01C301B501A8015D
:101F00009E012E5F3F4F01E010E00E9437186A816A
:101F1000772767FD7095C70148E00E949509FC018D
:101F2000D192E0C08E010D5F1F4FC8016FE17E01AD
:101F30000894E11CF11CA7010E94A909C8016FE1E6
:101F400040E197010E94E0093C01C8016FE140E1D6
:101F500097010E94E0095C01C8016FE140E197012F
:101F60000E94E0096C01C8016FE140E197010E9405
:101F7000E0098A838981882309F06CC0C301B50117
:101F8000A6019E012E5F3F4F01E010E00E94C317A3
:101F9000C40160E070E0A8C1C40160E070E040E10D
:101FA0000E949509FFE1FF2EDC01FD928D01CD011C
:101FB00065EF74E00E94B71ED8010D900020E9F78C
:101FC0005D010894A108B108A01AB10AA00EB11EC3
:101FD000F501F19287C08E010D5F1F4FC8016FE1BF
:101FE0007E010894E11CF11CA7010E94A909C80107
:101FF00065EF74E04FE197010E94BD0927C0CE0153
:1020000003966FE1AE014F5F5F4F0E94A909EB811C
:10201000FC818081893511F0893721F481E080933A
:10202000F40409C08E3411F08E3619F41092F404C1
:1020300002C081E089833196FC83EB83CE01039655
:102040006FE1AE014F5F5F4F0E94A909898188232C
:1020500009F438C1C40168E070E046C18E010D5F2B
:102060001F4FC8016FE17E010894E11CF11CA7011C
:102070000E94A909C8016FE14AE097010E94E009A6
:102080009C018630910510F081E089838981882345
:10209000C1F4822F0E942B1A0E94E8198C01C401FE
:1020A00060E070E040E10E949509EFE1FE2EFC0146
:1020B000F192CF01B80144E00E94D70ADC01FD9201
:1020C000DFC0C40168E070E040E10E9495091FE1B3
:1020D000FC011193CF0160E070E044E00E94D70A58
:1020E000FC0111935F0104C1C40160E070E040E1B4
:1020F0000E9495098C018FE1D8018D938D0188E0B4
:102100000E942B1A0E94E819BC0164547140C80156
:1021100043E00E94730A8C018EE1F80181938F01E4
:10212000FF247EE1E72E8F2D0E942B1A0E94E819D2
:10213000BC01C80144E00E94D70A8C01F5E0FF16FB
:1021400019F0DC01ED928D01F394B6E0FB1659F71E
:102150008FE1F8018193C6CFC40160E070E040E1F7
:102160000E9495091FE1FC0111936091ED047091AB
:10217000EE04CF0140E00E94D70ADC019CE2FD01A1
:1021800091938091F00411968C93DF0111969183C5
:10219000FD0131968091EF0411968C93DF01119629
:1021A0009183FD0131968091F10411968C931183F6
:1021B00062E0A62EB12CAE0EBF1E9AC053E0E52EF3
:1021C000F12CEC0EFD1EC7016FE18E010F5F1F4F5A
:1021D000A8010E94A909C7016CE24AE098010E9487
:1021E000E0096C01EB81FC8181918A83FC83EB83A4
:1021F000C7016CE2A8010E94A909EB81FC81A190B2
:10220000FC83EB83C7016CE2A8010E94A909EB8162
:10221000FC81B190FC83EB83C7016FE1A8010E94B0
:10222000A909C6016A814A2D2B2D0E94541E8823BC
:1022300011F481E089838981882309F00BCFD09242
:10224000EE04C092ED048A818093F004A092EF0422
:10225000B092F1040E94F91C35C0C40160E070E046
:1022600040E10E9495091FE1FC0111936091F20485
:102270007091F304CF0144E00E94D70ADC011D9362
:102280005D0136C08E010D5F1F4FC8016FE17E01F9
:102290000894E11CF11CA7010E94A909C8016FE183
:1022A0004AE097010E94E0099C018981882309F096
:1022B000D1CEB0E120303B0708F0CCCE3093F30410
:1022C0002093F204C40160E070E040E10E949509AF
:1022D0005C0181E08093B7010BC0C40160E870E04D
:1022E00003C0C40160E270E040E10E9495095C0116
:1022F00082016FEF7FEF06C0CB01F80160810E9481
:102300008009BC010F5F1F4F0A151B05A8F3C5010B
:1023100040E10E949509DC01FC0184E081938DE09D
:1023200011968C938AE081833296E419F509CF01E6
:10233000E4960FB6F894DEBF0FBECDBFCF91DF910C
:102340001F910F91FF90EF90DF90CF90BF90AF90D3
:102350009F908F907F906F905F904F900895CF9354
:10236000DF93EC010E947309882369F0CE0160E0DD
:102370000E946F1DBC01CE010E94270BBC01CE0143
:1023800040E00E94F91DDF91CF910895FC016A356C
:10239000710538F18789813121F560E040E050E036
:1023A00083A18B3711F441E050E020E030E082A1BE
:1023B000882311F421E030E02423352390E084A128
:1023C0008D3709F491E040E085A1813009F441E0C6
:1023D0009423892F90E028233923232B19F061E0DF
:1023E00001C060E0862F08951F93CF93DF93EC0127
:1023F000162F8A96FC0186E191E0DF019C011D9277
:1024000021503040E1F781E08AA78BA786E08CA7B6
:102410008AE58EA785EA8FA78AEA88AB85E589AB2E
:1024200080E88CABEBEDF4E0DE01AA5BBF4F81915D
:102430008D9334E0E13EF307D1F7CE018A5E9E4FE3
:1024400065E970E044E050E00E94881EC65EDE4F01
:1024500085E3899381E089931883CC51D140113071
:1024600071F4C35EDE4F87E3899382E08993199309
:1024700083E08883C052D14021E231E02AC013308A
:1024800019F02DE131E025C0C35EDE4F82E3899370
:1024900094E099938091B00489938091B1048993D9
:1024A0008091B20489938091B304899386E38993E0
:1024B00099938091B40489938091B5048993809114
:1024C000B60489938091B7048883C852D14029E229
:1024D00031E0FE01E20FF31F8CE08083C901019619
:1024E000AE01480F591FDA011C929C012F5F3F4F2C
:1024F000A3EDB4E0BF0109C0FB0181832F5F3F4F13
:102500001196FA0180818F5F80838C916F5F7F4F7E
:10251000882391F7C20FD31F8FEF88832952304051
:10252000C901DF91CF911F9108950F931F938C01E3
:10253000FC01BA9680E3DF011D928A95E9F7CF018D
:102540006BE870E04AE050E00E94881EF80114A297
:102550008BE785A38DE782A381E083A316A288E39E
:1025600087A38091B804868F8091B904878F80916A
:10257000BA0480A38091BB0481A3C8016CE470E01D
:1025800041E10E946704C8016CEB74E00E944805B9
:10259000A801485D5F4FC8014A9660E470E021E001
:1025A0000E9401038AE590E0B8010E9402021F9197
:1025B0000F910895CF93DF93EC0180919901909151
:1025C0009A018130910509F18130910540F0823006
:1025D000910509F444C0039709F0ADC058C080913B
:1025E0001C058C3308F4A7C010921C0580911D05B2
:1025F000815080931D05882309F09DC081E090E003
:1026000090939A018093990196C08091F404882355
:1026100009F491C080910001823008F08CC085EFF0
:1026200094E068EB74E00E943207882309F483C0C9
:102630008CEB94E068EB74E00E944004882349F03E
:1026400082E090E090939A018093990110921C058A
:1026500072C010929A011092990185E06AC00E949E
:102660005904882349F0CE010E94951283E090E03E
:1026700090939A018093990180911C05803108F410
:102680005AC010929A011092990182E052C0CE0174
:102690000E94C611882309F443C0F894CE5ADF4F34
:1026A000299130E040E050E0522F44273327222781
:1026B000888190E0A0E0B0E0DC0199278827282BF2
:1026C000392B4A2B5B2B2296888190E0A0E0B0E06A
:1026D000282B392B4A2B5B2BFE01829190E0A0E046
:1026E000B0E0BA2FA92F982F8827282B392B4A2BF7
:1026F0005B2B20583E474A4A53487894209317054D
:10270000309318054093190550931A0581E0809382
:10271000AD0410929A011092990188E780931D05EB
:1027200080911C058F3138F010929A011092990116
:1027300081E080931D05DF91CF910895EF92FF9284
:102740000F931F938C010E94F4117C01F80114A2D5
:1027500083E485A312A284E483A388E090E0E80EDA
:10276000F91EF6A2E8EFFFEFEE0EFF1E8E2D885F3A
:10277000F80187A38FEF868F878F80A381A38CE1D9
:1027800090E0E80EF91EC801B70141E10E9467041C
:10279000C80161E071E00E944805E4EFFFEFEE0E32
:1027A000FF1EA801485D5F4FC8014A96B70121E0AE
:1027B0000E940103C7014A96B8010E9402021F91BC
:1027C0000F91FF90EF900895FF920F931F93CF9377
:1027D000DF938C01F42E81E06D31780708F461C13C
:1027E000D80157968C915797813109F05AC1E0E092
:1027F000F0E093968C91833411F4E1E0F0E020E076
:1028000030E0D80192968C91882311F421E030E0D9
:102810002E233F2390E0F80184A1882309F491E05E
:1028200050E0D80195968C91843409F451E09523B9
:10283000892F90E028233923232B09F432C1E0E0CB
:10284000F0E0D801D1968C91853511F4E1E0F0E00B
:1028500020E030E0D801D0968C918A3A11F421E042
:1028600030E02E233F2390E0F80186A58A3509F455
:1028700091E050E0D8019F968C91853A09F451E09F
:102880009523892F90E028233923232B09F409C1AC
:10289000F80182A5823009F004C10A5E1E4F83E66A
:1028A000D8018D938D0190E08C91075111408238B1
:1028B00009F491E020E0085E1E4FF8018081085184
:1028C0001140833509F421E09223292F30E0E0E024
:1028D000F0E0075E1E4FD8018C91095111408336FC
:1028E00011F4E1E0F0E02E233F23232B09F4D9C0BB
:1028F00031E0CAE1D1E0A801465C5F4FDE011196EC
:10290000C00FD11F8881853381F0863338F4813040
:1029100009F492C0833009F0B5C069C0863309F468
:1029200041C08F3F09F0AEC0BDC0ED012196A00FA0
:10293000B11F8C91813009F0AEC0F801EC0FFD1F82
:10294000B2E0FB1691F48081823009F099C0FA015F
:1029500080819181A281B3818093B0049093B1046E
:10296000A093B204B093B3048BC085E0F81609F0CD
:1029700087C08081853081F48091B0049091B1044A
:10298000A091B204B091B3048093C6049093C7049D
:10299000A093C804B093C9048081863009F070C048
:1029A0003FEF6EC0ED012196A00FB11F8C918430D6
:1029B00009F071C0F801EC0FFD1F80818093B40411
:1029C000CE010196F801E80FF91F20812093B5048C
:1029D0000196F801E80FF91F20812093B6040196B3
:1029E000F801E80FF91F20812093B70448C0ED01DA
:1029F0002196A00FB11F8C91843009F04CC0F801D2
:102A0000EC0FFD1F80818093CA04CE010196F8016E
:102A1000E80FF91F20812093CB040196F801E80FFD
:102A2000F91F20812093CC040196F801E80FF91FCB
:102A300020812093CD0423C0ED012196A00FB11F6A
:102A40008C91843041F5F801EC0FFD1F808180935B
:102A5000CE04CE010196F801E80FF91F20812093E2
:102A6000CF040196F801E80FF91F20812093D004CC
:102A70000196F801E80FF91F20812093D104EC01A1
:102A800021960AC0F801EA0FFB1F8081ED01219613
:102A9000C80FD11D01C03FEFC617D70708F42ECFCE
:102AA00001C030E0832FDF91CF911F910F91FF90F4
:102AB0000895EF92FF920F931F937C01DB010D901D
:102AC0000020E9F78D0101501040061B170B96E717
:102AD000F70194A38FE585A392A383A3085F1F4FFB
:102AE00016A308501040802F885F87A38FEF868F32
:102AF000878F80A381A3045E1F4FC701B80141E106
:102B00000E946704C70161E071E00E9448050C5013
:102B10001040A701485D5F4FC7014A96B80121E008
:102B20000E940103C8014A96B7010E9402021F9148
:102B30000F91FF90EF9008958F929F92AF92BF9266
:102B4000CF92DF92EF92FF920F931F93DF93CF9379
:102B5000CDB7DEB7A0970FB6F894DEBF0FBECDBFDE
:102B60004C01AAE2CA2ED12CC80ED91ECE01019664
:102B7000BE016F5E7F4F0E944A1BC6016EE271E08C
:102B80000E94B71ED6019A96FE0135968AE0019002
:102B90000D928150E1F7D601DC96FE01719688E036
:102BA00001900D928150E1F7F60101900020E9F7C4
:102BB0003197EC19FD09EC0DFD1D86EC94E0BF0189
:102BC0000E946D07C60169E771E00E94A11EF6012F
:102BD00001900020E9F7EC19FD093796EC0DFD1D79
:102BE00082EA90E0BF0140E851E00E94901900970E
:102BF00031F4C6016DE871E00E94A11E2AC0FCE01C
:102C0000AF2EF2E0BF2EA80EB91ED6010D90002007
:102C1000E9F77D010894E108F108EC18FD08EC0CD7
:102C2000FD1CA5010894A11CB11C82E090E062EAA1
:102C300070E0970101E010E00E94371897012F5FC4
:102C40003F4FF70180818C3311F07901EACFD70132
:102C50001C92C60165E971E00E94A11EC401B60183
:102C60000E945915A0960FB6F894DEBF0FBECDBFD7
:102C7000CF91DF911F910F91FF90EF90DF90CF9058
:102C8000BF90AF909F908F9008950F931F93CF9315
:102C9000DF938C01EB010E94AD06882321F4109292
:102CA000980110929701809197019091980183303B
:102CB000910509F46FC08430910538F48130910595
:102CC000F1F0029708F04CC00CC08530910509F472
:102CD0009FC08530910508F48EC0069709F0D8C0D2
:102CE000C8C00E94AD06882331F081E090E0909347
:102CF00098018093970189EC80930001C9C011E08D
:102D00001093AE0481E00E940D0680911505882382
:102D100059F40E94D80386E090E090939801809344
:102D200097011093000117C080E090E0FC01E0558E
:102D3000FB4F1082FC01EA53FB4F10820196843056
:102D40009105A1F782E090E090939801809397011C
:102D500084E68093000110921B051092AF0498C086
:102D600080911B05833008F493C080E00E940D061B
:102D7000C80161E00E949E1383E090E09093980167
:102D80008093970110921B058091AF048F5F809311
:102D9000AF047EC020911B054091AF0430E086E077
:102DA000489FC00111242817390734F082E090E0D1
:102DB0009093980180939701463058F00E94D80371
:102DC00086E090E0909398018093970181E0809352
:102DD0000001209709F45CC0C801BE0142E00E94D6
:102DE000E413882309F454C084E090E090939801A0
:102DF000809397014DC0C80163E00E949E1385E057
:102E000090E0909398018093970110921B0540C029
:102E100080911B05843030F082E090E0909398011F
:102E2000809397012097A1F1C801BE0145E00E945F
:102E3000E413882369F18091B0048093C6048091E3
:102E4000B1048093C7048091B2048093C804809138
:102E5000B3048093C90486E090E090939801809336
:102E600097011092000110921B0581E00E940D064F
:102E70000FC08091AE04813059F480911B058330DE
:102E800038F0CD2B29F4C8010E949C151092AE0495
:102E9000DF91CF911F910F91089587B18F7C87B9F2
:102EA00088B1806388B986E38093B8008CEF809303
:102EB000B900089584688093BC008091BC0087FFAE
:102EC000FCCF8091B900887F089584EA8093BC008C
:102ED0008091BC0087FFFCCF8091B900887F089566
:102EE00084E98093BC008091BC0084FDFCCF8CE021
:102EF0008A95F1F708958093BB0084E88093BC0025
:102F00008091BC0087FFFCCF8091B900887F089535
:102F1000882359F084EC8093BC008091BC0087FF2B
:102F2000FCCF8091B900887F089584E88093BC002D
:102F30008091BC0087FFFCCF8091B900887F089505
:102F4000982F34EA24E83093BC008091BC0087FFBE
:102F5000FCCF8091B9009093BB002093BC0080917E
:102F6000BC0087FFFCCF8091B900887F883159F77A
:102F700084E98093BC008091BC0084FDFCCF8CE090
:102F80008A95F1F708950F931F93FC01D90184EA04
:102F90008093BC008091BC0087FFFCCF8091B9007A
:102FA000887F883019F0803109F048C06E7F6093C7
:102FB000BB0084E88093BC008091BC0087FFFCCFFD
:102FC0008091B900887F8831C9F5E230F10591F42C
:102FD000852F992787FD9A958093BB0084E880937D
:102FE000BC008091BC0087FFFCCF8091B900887F36
:102FF000883221F53197329720F54093BB0084E861
:103000008093BC008091BC0087FFFCCF8091B90009
:10301000887F883299F415C08C918093BB0090937F
:10302000BC008091BC0087FFFCCF8091B90021508B
:103030003040887F883211F4119605C08091B90024
:1030400013C0980194E82115310531F784E9809384
:10305000BC008091BC0084FDFCCF8CE08A95F1F728
:10306000862F0E94A01780E01F910F9108950F9363
:103070001F93FC01D90184EA8093BC008091BC00BD
:1030800087FFFCCF8091B900887F883019F08031AC
:1030900009F069C0862F8E7F8093BB0084E88093FF
:1030A000BC008091BC0087FFFCCF8091B900887F75
:1030B000883109F058C0E230F10599F4852F99273D
:1030C00087FD9A958093BB0084E88093BC00809133
:1030D000BC0087FFFCCF8091B900887F883209F05F
:1030E00042C03197329770F44093BB0084E88093DC
:1030F000BC008091BC0087FFFCCF8091B900887F25
:10310000883289F584EA8093BC008091BC0087FFF7
:10311000FCCF8091B900887F803129F56160609390
:10312000BB0084E88093BC008091BC0087FFFCCF8B
:103130008091B900887F8034B1F41CC001501040E8
:1031400039F09093BC008091BC0087FFFCCF06C093
:103150002093BC008091BC0087FFFCCF8091B90018
:10316000807F803519F08091B90014C08091BB0038
:103170008D9302C024E894EC01151105F9F684E959
:103180008093BC008091BC0084FDFCCF8CE08A95CC
:10319000F1F780E01F910F910895982F84EA8093B2
:1031A000BC008091BC0087FFFCCF8091B900887F74
:1031B000883011F08031E9F490679093BB0084E887
:1031C0008093BC008091BC0087FFFCCF8091B90048
:1031D000887F883171F46093BB0084E88093BC00E1
:1031E0008091BC0087FFFCCF8091B900887F883236
:1031F00019F08091B900089584E98093BC00809112
:10320000BC0084FDFCCF8CE08A95F1F780E0089546
:103210001F93CF93DF9387B18F7C87B988B1806389
:1032200088B986E38093B8008CEF8093B90088EB6F
:103230009BE028E331E0F9013197F1F70197D9F7E5
:1032400080E090E06CE10E94CD18882309F064C012
:1032500088EE93E028E331E0F9013197F1F7019727
:10326000D9F780E090E064E10E94CD1880E090E022
:1032700069E00E94CD1880E090E068E30E94CD18DC
:1032800080E090E068E40E94CD1882E090E061E484
:103290000E94CD1882E090E062E40E94CD1882E0A6
:1032A00090E063E40E94CD1882E090E061E30E9428
:1032B000CD1882E090E062E30E94CD1882E090E0B9
:1032C00068E70E94CD1810E4C8E3D1E080E090E008
:1032D000612F0E94CD1888EE93E0FE013197F1F73F
:1032E0000197D9F71F5F103589F710E4C8E3D1E0E3
:1032F00080E090E0612F0E94CD1888EE93E0FE01FF
:103300003197F1F70197D9F71F5F103589F780E002
:1033100090E06FE40E94CD18DF91CF911F91089546
:103320006F927F928F929F92AF92BF92CF92DF92D5
:10333000EF92FF920F931F93CF93DF934C016B019A
:103340005A01E12C32E0F32E612C21E0722E87012C
:1033500000501F4F0E151F0518F0C0E0D1E003C04C
:10336000E301C01BD10B82E090E0B401A7019601FC
:103370008E010E943718F601EC0FFD1F1082C60166
:10338000B5010E94CD1E9C01009741F0A70140505D
:1033900052402C193D09420F531F0AC0C050D14062
:1033A00029F480EF90E0E80EF91ED1CF40E050E024
:1033B000CA01DF91CF911F910F91FF90EF90DF90A5
:1033C000CF90BF90AF909F908F907F906F90089517
:1033D00080917A00806880937A0080917A00806181
:1033E00080937A0080917A00806480937A00809143
:1033F0007A0084FFFCCF80917A00806180937A000C
:1034000060E020E030E080917A00806480937A0070
:1034100080917A0084FFFCCF9091780080917900B0
:10342000582F40E0FA01E90FF11D2E0F3F1F809148
:103430007A00806180937A006F5F683021F7809115
:103440007A008F7780937A0083E0369527958A9566
:10345000E1F7C9010895843011F48EE003C085308E
:1034600009F48FE08F70806C80937C0087E88093F4
:103470007A000E94E8190895613011F4845E08957D
:10348000673008F0615060FD02C08FE108958EE161
:1034900008958F929F92AF92BF92CF92DF92EF9258
:1034A000FF920F931F93A82E862E942EF89460916E
:1034B0001705709118058091190590911A0520E85B
:1034C00031E541E050E00E94991F40E050E0CA0120
:1034D000B90120E831E541E050E00E94661F7B0120
:1034E0008C01E90CF11C011D111DBB24CC24DD2431
:1034F000C601B5012CE330E040E050E00E94661FB9
:10350000680D711D811D911D0E94661FE60EF71E3C
:10351000081F191FE0921705F0921805009319056E
:1035200010931A0578941F910F91FF90EF90DF9000
:10353000CF90BF90AF909F908F900895AF92BF9221
:10354000CF92DF92EF92FF920F931F93CF93DF936F
:103550008C01A62EEE24FF2422EB37E01CC0C9010B
:1035600083709070892B89F4C90164E670E00E9431
:10357000851F892B39F4C90160E971E00E94851F1C
:10358000892B19F48EE691E002C08DE691E0E80EF9
:10359000F91E2F5F3F4F2017310708F3C80164E67B
:1035A00070E00E94851FEC01C80160E971E00E9493
:1035B000851FFC01A0E0B0E06A2D70E06150704012
:1035C000C801837090701DC0009719F020E030E0B2
:1035D00008C0209721F420E030E0309711F421E07A
:1035E00030E05A2FA13011F4245E08C0A73008F053
:1035F000515050FD02C02FE101C02EE11196E20EA4
:10360000F11CA617B70700F3F894A0901705B09027
:103610001805C0901905D0901A05642F70E061500C
:1036200070406E0D7F1D80E090E020E831E541E0C4
:1036300050E00E94661F7B018C01C601B5010E940B
:10364000991FE60EF71E081F191FE0921705F0924A
:1036500018050093190510931A057894DF91CF91FE
:103660001F910F91FF90EF90DF90CF90BF90AF90A0
:103670000895CF93DF93EC01FC0101900020E9F75E
:103680003397E817F90711F080E38A93CE01DF91B1
:10369000CF9108952F923F924F925F926F927F92B7
:1036A0008F929F92AF92BF92CF92DF92EF92FF9252
:1036B0000F931F93DF93CF9300D000D000D0CDB7EE
:1036C000DEB75C013B01F894609117057091180515
:1036D0008091190590911A0520E831E541E050E00C
:1036E0000E94991FC62E572E482E392E609117051D
:1036F000709118058091190590911A0520E831E51F
:1037000041E050E00E94991F79017894C901049624
:1037100067E070E00E94851F282E02EB17E019C0B9
:10372000892889F4C80164E670E00E94851F892B0E
:1037300039F4C80160E971E00E94851F892B19F4F2
:103740008EE691E002C08DE691E0E81AF90A0F5F7B
:103750001F4F83E0882E912C8022912281149104A6
:1037600089F4C80164E670E00E94851F892B39F452
:10377000C80160E971E00E94851F892B19F48EE66B
:1037800091E002C08DE691E0E816F90648F6C8011E
:1037900064E670E00E94851FFC01C80160E971E0E9
:1037A0000E94851F9C01DD244FEF23C081149104EA
:1037B00019F080E090E009C0309729F480E090E0B3
:1037C0002115310511F481E090E051E0D51611F496
:1037D000845E0BC086E08D1510F08D2D01C0842F06
:1037E00080FD02C08FE101C08EE1E81AF108D39498
:1037F0004F5F8114910419F080E090E009C0309788
:1038000029F480E090E02115310511F481E090E089
:1038100051E0D51611F4845E0BC086E08D1510F0D2
:103820008D2D01C0842F80FD02C08FE101C08EE18B
:1038300090E0E816F90608F0B9CF83E0289EA001D1
:10384000112447565F4F20E030E0FA018491F501E2
:10385000E20FF31F80832F5F3F4F4F5F5F4F233097
:10386000310599F780E2F50183831482C801BE0116
:103870006F5F7F4F4AE050E00E941F1FBC01C501EF
:103880000E94A11EC5016BE971E00E94A11E8D2D51
:1038900090E08E010E5F1F4F0196B8014AE050E0A4
:1038A0000E941F1F0E94391BBC01C5010E94A11E5E
:1038B000C5016BE971E00E94A11EC7010196B80124
:1038C0004AE050E00E941F1F0E94391BBC01C50145
:1038D0000E94A11E6C2D752D842D932D20E13EE0BC
:1038E00040E050E00E94991F822F90E0B8014AE02A
:1038F00050E00E941F1F0E94391BBC01C3010E949F
:10390000B71EC3016DE971E00E94A11E6C2D752DDB
:10391000842D932D20E13EE040E050E00E94991F6D
:103920002CE330E040E050E00E94991F822F90E0AD
:10393000B8014AE050E00E941F1F0E94391BBC01E1
:10394000C3010E94A11EC3016DE971E00E94A11E86
:103950006C2D752D842D932D2CE330E040E050E04C
:103960000E94991F862F90E0B8014AE050E00E9423
:103970001F1F0E94391BBC01C3010E94A11E269675
:103980000FB6F894DEBF0FBECDBFCF91DF911F9170
:103990000F91FF90EF90DF90CF90BF90AF909F90EE
:1039A0008F907F906F905F904F903F902F900895F1
:1039B000282F80538A3010F4482F0FC0822F815453
:1039C000863018F4422F475308C0822F8156863024
:1039D00010F04FEF02C0422F4755242F332727FD09
:1039E0003095862F90E0281739070CF04FEF842F81
:1039F00008958091ED049091EE0425E280389207BD
:103A000061F021EE8030920721F0805B9440C9F490
:103A10000DC01092C5008AE103C01092C50082EA71
:103A20008093C4008091C000826009C082E08093CE
:103A3000C5008AE88093C4008091C0008D7F809388
:103A4000C0008091F004853411F0853611F490E2C5
:103A500001C090E08F3411F08F3609F490638091AB
:103A6000F104823309F49860292F24608091EF04D7
:103A7000883311F4292F26602093C20088E18093B7
:103A8000C1000895CF93DF93EC01442311F1862FF9
:103A900080528F35F0F0DE0185E28D93E62FE595BB
:103AA000E595E595E595FF27E7FDF095EC5EFE4F82
:103AB00080818983E62FFF27E7FDF095EF70F07096
:103AC000EC5EFE4F808111968C931197FD0132962A
:103AD00002C0FE016193CF01DF91CF910895DF9283
:103AE000EF92FF920F931F93CF93DF938C01E62EFB
:103AF00010921E05EC01FF2455E2D52E0E94730999
:103B0000882309F455C00E947909982F823019F052
:103B1000FF2009F44DC0EE2009F1892F80528F3526
:103B2000E8F0DE01DD92E92FE595E595E595E5956F
:103B3000FF27E7FDF095EC5EFE4F80818983E92F3A
:103B4000FF27E7FDF095EF70F070EC5EFE4F80818F
:103B500011968C931197ED01229601C099939430A0
:103B600029F5DE011196EE20D1F095E2988380913F
:103B700014018983FD0131968091210111968C9366
:103B8000DF0111969183FD01319680911401119608
:103B90008C9380911E018183EF0122961EC08DE0DF
:103BA00088838AE08983ED01219617C0FF24F3946E
:103BB00020911E0530E08091F2049091F304880F6B
:103BC000991F880F991F2817390738F4CE01801BD9
:103BD000910B8F5B92400CF491CF9E01201B310B17
:103BE000C901DF91CF911F910F91FF90EF90DF906E
:103BF0000895EF92FF920F931F93CF93DF93EC0101
:103C00008B01E42EFF2445C001501040888120E044
:103C100030E0853211F421E030E02E213F21FE0119
:103C20003196232B99F1AF014F5F5F4F9981892F17
:103C300080538A3010F4982F0EC0892F815486301B
:103C400010F4975305C0892F8156863018F4975584
:103C500090310CF09FEF2181822F80538A3060F0E9
:103C6000822F8154863020F0822F8156863018F4BE
:103C7000865F80310CF08FEFEA0121969295907F5C
:103C8000890F0E94F0080250104003C0EF010E940B
:103C9000F0080115110509F0B7CFDF91CF911F9101
:103CA0000F91FF90EF9008950F931F93142F022F01
:103CB00021EE8030920739F025E28038920719F022
:103CC000805B944009F5772767FD70958FE991E057
:103CD0000E94AC1E0097C1F0612F772767FD709599
:103CE00086EA91E00E94AC1E009771F0602F772762
:103CF00067FD709589EA91E00E94AC1E9C0180E00E
:103D0000232B19F081E001C080E01F910F910895ED
:103D1000FB01DC0102C005900D9241505040D8F7E4
:103D20000895FB01DC0102C001900D92415050400A
:103D3000D8F70895DC0101C06D9341505040E0F781
:103D40000895FB01DC010D900020E9F71197019027
:103D50000D920020E1F70895FC018191861721F072
:103D60008823D9F7992708953197CF010895FB014A
:103D7000DC0101900D920020E1F70895FB01DC01C8
:103D80004150504048F001900D920020C9F701C009
:103D90001D9241505040E0F70895FB015191552389
:103DA000A9F0BF01DC014D9145174111E1F759F42C
:103DB000CD010190002049F04D9140154111C9F30A
:103DC000FB014111EFCF81E090E001970895A0E061
:103DD000B0E0EDEEFEE10C94C51F7C01EB018A0121
:103DE000690109C0CE012196F6010995F701819379
:103DF0007F010150104001151105A1F7CDB7DEB7C5
:103E0000E8E00C94E11FA0E0B0E0E9E0FFE10C94F1
:103E1000C51FEC017B018A01690109C0CE01219611
:103E2000F70161917F01F6010995015010400115DC
:103E30001105A1F7CDB7DEB7E8E00C94E11FFB0157
:103E40009F01E8944230C4F04532B4F44A3029F47A
:103E500097FB1EF4909581959F4F642F77270E94C2
:103E6000851F805D8A330CF0895D8193CB010097BB
:103E7000A1F716F45DE251931082C9010C94561F0C
:103E8000FB019F01423074F0453264F4642F7727C0
:103E90000E94851F805D8A330CF0895D8193CB0180
:103EA0000097A1F71082C9010C94561FDC01FC0198
:103EB000672F71917723E1F7329704C07C916D935E
:103EC00070836291AE17BF07C8F30895629FD00157
:103ED000739FF001829FE00DF11D649FE00DF11DC5
:103EE000929FF00D839FF00D749FF00D659FF00D74
:103EF0009927729FB00DE11DF91F639FB00DE11D61
:103F0000F91FBD01CF0111240895AA1BBB1B51E16C
:103F100007C0AA1FBB1FA617B70710F0A61BB70B39
:103F2000881F991F5A95A9F780959095BC01CD01DE
:103F30000895A1E21A2EAA1BBB1BFD010DC0AA1FEA
:103F4000BB1FEE1FFF1FA217B307E407F50720F002
:103F5000A21BB30BE40BF50B661F771F881F991F7D
:103F60001A9469F760957095809590959B01AC01C6
:103F7000BD01CF0108952F923F924F925F926F92B1
:103F80007F928F929F92AF92BF92CF92DF92EF92E9
:103F9000FF920F931F93CF93DF93CDB7DEB7CA1B6A
:103FA000DB0B0FB6F894DEBF0FBECDBF09942A8895
:103FB000398848885F846E847D848C849B84AA843D
:103FC000B984C884DF80EE80FD800C811B81AA81CA
:103FD000B981CE0FD11D0FB6F894DEBF0FBECDBF95
:083FE000ED010895F894FFCFF4
:103FE800C8FFFFFFFFFFFF3133342E3133302E344B
:103FF8002E31370030313233343536373839616253
:10400800636465660003004E4F44415441005B748D
:1040180061726765743D73746172696E65745D2061
:104028005B616374696F6E3D646973636F76657213
:104038005D205B646174653D595959592D4D4D2D6D
:1040480044445D205B74696D653D48483A4E4E3A7C
:1040580053535D205B69703D005D205B69643D00E2
:104068003C4964656E7469666965723E00554E4BDD
:104078004E4F574E005D00010001002D003A0045EB
:0C408800654F6F4E6E003738003132007B
:00000001FF
