:100000000C9455000C9472000C9472000C947200C5
:100010000C9472000C9472000C9472000C94720098
:100020000C9472000C9472000C9472000C94D6061E
:100030000C9472000C9472000C9472000C94720078
:100040000C9472000C9472000C9472000C94720068
:100050000C9472000C9472000C9472000C94720058
:100060000C9472000C947200000108000604000158
:10007000415652000000000000C0A80114C0A801B1
:1000800001FFFFFF00E30004FA000100010000632C
:1000900082536353756E4D6F6E5475655765645426
:1000A0006875467269536174000011241FBECFEF5A
:1000B000D8E0DEBFCDBF11E0A0E0B1E0E4E0F0E4C5
:1000C00002C005900D92AE3CB107D9F715E0AEEC39
:1000D000B1E001C01D92A134B107E1F70E944B08C5
:1000E0000C9400200C9400002898962F9F71982B58
:1000F0009EBD0DB407FEFDCF1EBC0DB407FEFDCFA7
:1001000067FF04C01EBC0DB407FEFDCF289A8EB554
:10011000089528986F71682B6EBD0DB407FEFDCF52
:100120004EBD0DB407FEFDCF289A089528982AE306
:100130002EBD0DB407FEFDCF9C01FB0108C01EBC07
:100140000DB407FEFDCF4EB541932150304021152F
:100150003105A9F7860F971FFC011082289A089590
:10016000FB0128982AE72EBD0DB407FEFDCF06C07F
:1001700021912EBD0DB407FEFDCF01970097C1F769
:10018000289A08951F93CF93DF93182FC82FD0E09C
:10019000C076D0702091D20130E0C217D30791F021
:1001A00080EA6FE143E00E948900AE0185E0559549
:1001B00047958A95E1F780E86FE10E948900107603
:1001C0001093D201DF91CF911F910895DF93CF93C8
:1001D0000F92CDB7DEB7682F69830E94C20080E01E
:1001E00069810E9474000F90CF91DF9108951F9351
:1001F000DF93CF930F92CDB7DEB7182F69830E949C
:10020000C20080E4612F49810E9489000F90CF9144
:10021000DF911F910895682F84ED0E94F70082ED11
:1002200061E00E94F70080E58A95F1F78AEE0E946E
:10023000E60080FDFBCF82ED60E00E94F70089EDD3
:100240000E94E60090E008951F93DF93CF930F92F2
:10025000CDB7DEB7982F162F84ED692F79830E94D2
:10026000F70086ED612F0E94F70087ED7981672FF7
:100270000E94F70003C080E58A95F1F78AEE0E949C
:10028000E60080FDF8CF0F90CF91DF911F91089588
:10029000682F677085E70E94F7000895CF93DF937A
:1002A000EC0184B1896284B9289A24982B982D98FE
:1002B00080E58CBD8DB581608DBD8FEF60E04FEF27
:1002C0000E9489001092D2018FEF90E7A2E0815046
:1002D0009040A040E1F700C000001092CF011092C2
:1002E000CE0188E060E00E94F70089E060E00E94B3
:1002F000F7008CE060E00E94F7008DE060E00E9473
:10030000F7008AE06EEF0E94F7008BE069E10E943F
:10031000F70084E06FEF0E94F70085E069E10E943A
:10032000F70086E06FEF0E94F70087E06FE10E9420
:10033000F70088E360E20E94F70088E26FE30E9422
:10034000F70089E260E30E94F70080E369EF0E9412
:10035000F70081E367EF0E94F70080EC6DE00E94F8
:10036000F70081EC60E00E94F70080E862EC42E375
:100370000E94890086EC62E10E94F70087EC6CE045
:100380000E94F70084EC62E10E94F7008AEC6EEEB6
:100390000E94F7008BEC65E00E94F70084EE688114
:1003A0000E94F70085EE69810E94F70082EE6A8163
:1003B0000E94F70083EE6B810E94F70080EE6C8153
:1003C0000E94F70081EE6D810E94F70080E160E0FD
:1003D00071E00E9424018FE10E94C20080E86BE17D
:1003E00040EC0E94890080E86FE144E00E948900AF
:1003F000DF91CF910895682F88E30E94F700089558
:1004000082E70E94E600089581E10E940B0121E04D
:10041000009709F420E0822F08950F931F93CF9344
:10042000DF93EC018B019093D1018093D00180E8A0
:100430006FE140E80E9489008FE99FE00197F1F7A2
:1004400000C0000080EA6FE140E80E94890082E07D
:100450006FEF0E94F70083E069E10E94F700CE0190
:100460008150682F86E00E94F7009E012150364E91
:1004700087E0632F0E94F7008AE760E040E00E9477
:100480008900CE01B8010E94B00080E86FE148E029
:100490000E948900DF91CF911F910F910895EF92F3
:1004A000FF92CF93DF9380E86FE140E80E948900DC
:1004B0008FE99FE00197F1F700C0000080EA6FE14B
:1004C00040E80E94890082E06FEF0E94F70083E01D
:1004D00069E10E94F700C091D001D091D101CE0115
:1004E0008150682F86E00E94F700C150D64E87E009
:1004F0007E016F2D0E94F7008AE760E040E00E94D5
:10050000890080E86FE148E00E948900DF91CF9187
:10051000FF90EF9008958F929F92AF92BF92CF92EB
:10052000DF92EF92FF920F931F93CF93DF936C01B3
:100530005B0189E30E94E600882309F46BC06091A7
:10054000CE010091CF0180E00E94F70081E0602F92
:100550000E94F7008AE360E00E947400082F8AE39B
:1005600060E00E947400382F20E010E0022B132B73
:100570001093CF010093CE018AE360E00E947400E3
:10058000882E8AE360E00E947400982E8AE360E07F
:100590000E947400E82EFF248AE360E00E94740049
:1005A000382F20E0E22AF32AE7FE13C0C82DD0E05E
:1005B000392D20E0C22BD32B0894C108D1082497F1
:1005C000CC16DD0608F4E601CE01B5010E949600C6
:1005D00002C0C0E0D0E078010894E108F1082FEFF4
:1005E000E21629E1F20638F08CE06EEF0E94F70087
:1005F0008DE069E107C0602F61508CE00E94F70038
:100600008DE06F2D0E94F70080E86EE140E40E94CB
:10061000890002C0C0E0D0E0CE01DF91CF911F91F0
:100620000F91FF90EF90DF90CF90BF90AF909F9091
:100630008F900895AF92BF92CF92DF92EF92FF9288
:100640000F931F93CF93DF935C01EA011882198205
:10065000213041F4CB010897A0E0B0E04196A11D04
:10066000B11D0DC0223041F4CB010897A0E0B0E0ED
:100670000696A11DB11D03C080E090E0DC016B0176
:10068000F50119C0E080FF2400E010E0102F0F2DCD
:10069000FE2CEE24218130E040E050E0E22AF32AF3
:1006A000042B152B8E0D9F1DA01FB11F32962EEF10
:1006B0003FEFC20ED31E32E0C316D10418F7FB0180
:1006C000EE7FEA0DFB1D60FF0FC0208130E040E0AF
:1006D00050E0542F432F322F222702C0A070B07059
:1006E000820F931FA41FB51F9D0144275527211575
:1006F00031054105510591F79C01209530953883CE
:1007000080958983DF91CF911F910F91FF90EF909A
:10071000DF90CF90BF90AF900895EF92FF920F932C
:100720001F93CF93DF93EC018B016E307105C0F105
:100730008C858830B9F58D858823A1F562327105E5
:1007400078F1AE01485E5F4FF88CE98CCE010E96D1
:1007500064E170E020E00E941A03898DE81601F53B
:10076000888DF816E9F48F898131E1F40A32110598
:10077000C8F0AE01485D5F4FF8A4E9A47EA160E037
:100780008FA1680F711D685F7F4FCE014A9621E0EF
:100790000E941A0389A5E81619F488A5F81611F025
:1007A00000E010E0C801DF91CF911F910F91FF9001
:1007B000EF9008958DEF94E00E944E0184E166E78A
:1007C00074E00E9424010E9400028093D70182E01D
:1007D0000E94480108950E9404020895882311F49C
:1007E00080E201C080EB0E94FB010895A8EEB4E016
:1007F000E3E0F5E08CE001900D928150E1F708957F
:10080000FC016A327105B0F08485883099F48585E1
:10081000882381F48685853469F47E96A8EEB4E059
:1008200091918D91981741F484E0AC3EB807C1F7DF
:1008300081E0089580E0089580E00895CF93DF93EC
:10084000FC01EC01862F972FDC0186E00D900992C8
:100850008150E1F7EF012696ADEFB4E086E00D9010
:1008600009928150E1F788E084871586DF91CF9166
:100870000895CF93DF93DC011696EC01FD0186E02D
:10088000019009928150E1F7EDEFF4E086E00190EC
:100890000D928150E1F7DF91CF910895FC0185E43D
:1008A00086871786478B708B618B8091D5019091DD
:1008B000D601928B838B01969093D6018093D501BC
:1008C00080E4848B158A868B8091E8049091E904FA
:1008D000A091EA04B091EB04828F938FA48FB58F1F
:1008E000AF01485E5F4FCF010E9664E170E020E0FB
:1008F0000E941A0308950F931F93CF93DF93EC0187
:100900008B010E9439048A8D8E8F8B8D8F8F8C8DF9
:1009100088A38D8D89A3CE01B8014F890E944E0412
:10092000DF91CF911F910F9108950F931F93CF9354
:10093000DF93EC018B016E5070400E947B041AA281
:100940008CA1883F18F08DA18F5F8DA38CA1885F4B
:100950008CA3C801BE010E940D02DF91CF911F91AF
:100960000F910895EF92FF920F931F93CF93DF9310
:10097000EC017B01042F152F82E0053C180710F0D5
:1009800004EC12E0B801645E7F4FCE010E947B044C
:100990008CA19AA19CA38AA38DA19BA19DA38BA3AB
:1009A000C80108969EA38FA3E114F10441F09E01B3
:1009B000265D3F4FC901B701A8010E943B1FB80146
:1009C000605F7F4FAE01485D5F4FCE014A9621E0E8
:1009D0000E941A03C8018A96BE010E940D02DF918F
:1009E000CF911F910F91FF90EF900895E8EEF4E002
:1009F000282F392FD90191918D91892797818923AA
:100A000031F484E0EC3EF807B1F781E0089580E02E
:100A10000895FC016932710598F08485883081F46D
:100A20008585863069F4B696A8EEB4E091918D91F3
:100A3000981741F484E0AC3EB807C1F781E008950F
:100A400080E0089580E0089521E0FC0185898230EE
:100A500009F020E0822F089521E0FC018589813092
:100A600009F020E0822F0895CF93DF93EC010E94DC
:100A700039041C8A82E08D8BADEFB4E0FE017696DE
:100A8000808182878D91819385E0A330B807C1F77B
:100A9000A8EEB4E0FE017C96808182878D918193DF
:100AA00084E0AC3EB807C1F78AE290E0BE010E9444
:100AB0000D02DF91CF9108950F931F93CF93DF9392
:100AC000EC018B0161E071E00E941E0486E08D87DD
:100AD000CE010E9668E670E048E050E00E94321FBA
:100AE000ADEFB4E0FE0176968D918193118625E0FD
:100AF000A330B207C9F7802F912FA8EEB4E0AE0162
:100B0000445E5F4FFC012191CF01FA0122872D91B4
:100B10002193AF01F4E0AC3EBF07A1F78AE290E079
:100B2000BE010E940D02DF91CF911F910F91089598
:100B3000CF93DF93EC0161157105B1F10E940905B6
:100B4000882391F18D89813019F4CE010E943405FA
:100B500021E030E08D89823011F020E030E081E04A
:100B600090E04091D3015091D4014230510511F0F1
:100B700080E090E0822393230097B1F0DE01569647
:100B800080E09D91E091E404F091E5049193F0936D
:100B9000E504E093E4048F5F863099F783E090E00A
:100BA0009093D4018093D3018091D3019091D4018B
:100BB00081309105D9F48091E6049091E7040E9478
:100BC000F604882331F48CEE94E09093E70480934C
:100BD000E6046091E6047091E704CE010E945C0592
:100BE00082E090E09093D4018093D301DF91CF9184
:100BF00008952091D3013091D4012115310581F45C
:100C00007093E7046093E6049093E5048093E40412
:100C100081E090E09093D4018093D30181E0089526
:100C200080E008958091D3019091D40183309105A3
:100C300031F41092D4011092D30181E0089580E044
:100C400008950F931F93CF93DF93EC018B0180E006
:100C50000E94EE030C35110509F0A3C08F89813184
:100C600009F09FC08CA1882309F09BC08DA1893811
:100C700009F097C08CA5813009F093C08DA5803113
:100C800009F08FC08EA5882309F08BC08FA5813015
:100C900009F087C08EA9803209F083C0FE01E85AAE
:100CA000FF4F8081882309F07CC0FE01E75AFF4F87
:100CB0008081803209F075C0FE01E65AFF4F8081C5
:100CC000882309F06EC0FE01E55AFF4F8081813014
:100CD00009F067C0A5EFB4E0FE01F79621E037E325
:100CE00081818154908191549295907F890F9C913C
:100CF000992321F0981320E0119605C0882319F05C
:100D0000803209F020E03E5F3296373549F72223E2
:100D100009F447C085E88CA71DA61FA681E089AB12
:100D2000FE01E45AFF4F1082FE01E35AFF4F10828A
:100D3000FE01E25AFF4F1082FE01E15AFF4F8EE1A1
:100D40008083FE01E05AFF4F1082FE01EF59FF4FF2
:100D500086E08083FE01EE59FF4F1082FE01ED59BF
:100D6000FF4F1082FE01EC59FF4F8091E804808311
:100D7000FE01EB59FF4F8091E9048083FE01EA599F
:100D8000FF4F8091EA048083FE01E959FF4F809173
:100D9000EB048083CE0160E070E047E550E00E9404
:100DA000B204DF91CF911F910F9108951F920F927E
:100DB0000FB60F9211248F939F93AF93BF9380919F
:100DC00040058F5F809340058091CE04882309F40D
:100DD0005D9A982F9F5F9093CE04833028F11092F4
:100DE000CE048091390590913A05A0913B05B091D0
:100DF0003C050196A11DB11D8093390590933A05DC
:100E0000A0933B05B0933C0580913E058F5F809396
:100E10003E0580913D058F5F80933D0580913805AB
:100E20008F5F809338055D98BF91AF919F918F91AF
:100E30000F900FBE0F901F90189510928500109282
:100E40008400109280008CE0809381008DE3809379
:100E5000890089E08093880082E080936F00789415
:100E6000089508950F931F93CF93DF938C01FC0196
:100E700067A170E06850704096A180E0680F791F0C
:100E8000F4E0403B5F0729F084E0453B5807B1F4AC
:100E90000BC0E801AA96CE0140E00E94471DCE019A
:100EA00060E00E94C01D04C0C8018A960E94CE0A5C
:100EB000AC01C80160E070E00E94B204DF91CF9104
:100EC0001F910F910895AF92BF92CF92DF92EF9250
:100ED000FF920F931F93CF93DF938C01D62EE72EB3
:100EE000A62EE5015E01B72EE50194E0F92E8EE213
:100EF000C82EFA94F80181918F0190E0BE014AE07A
:100F000050E00E94911F5E01AC2FBB2DFD010190AE
:100F10000020E9F73197EA1BFB0BCE0FDF1FF11022
:100F2000C992FF2031F78D2D9E2DDF91CF911F911A
:100F30000F91FF90EF90DF90CF90BF90AF9008950A
:100F4000FC0120E080E090E03191332341F49330C4
:100F500001F52223F1F0FB01838381E00895432F03
:100F600040534A3048F4282F220F822F880F880FD1
:100F7000820F840F21E00BC03E3259F4222359F036
:100F8000DB01A90FB11D8C939F5F20E080E09430BE
:100F9000D8F280E0089580E008950895CF92DF921E
:100FA000EF92FF920F931F93CF93DF93EC0127E112
:100FB000E22EF12CE80EF91E60C08EEE92E0BE012A
:100FC0000E948B028C01009729F0CE01B8010E948B
:100FD0008D038C01CE01B8010E949A158091000109
:100FE000843608F04AC0CE01B8010E949805CE01AF
:100FF000B8010E9421060115110541F0CE01B8018A
:101000000E940004882311F400E010E0CE01B80132
:101010000E9418170115110511F18091CC049091CF
:10102000CD0401969093CD048093CC04F701808188
:10103000813039F48AA1883021F4CE01B8010E94B0
:101040009504F7018081813151F4DCA0CC248DA17D
:10105000A601480F511DCE01B8010E9432078091B0
:10106000D901813051F484EF94E060E070E044E411
:1010700050E00E94D81F1092D9018091D801882396
:1010800009F49BCFDF91CF911F910F91FF90EF90CB
:10109000DF90CF9008951F9380E8809361001092B5
:1010A00061008FE19EE40197F1F700C000005398C2
:1010B0005C9A85B1866085B9559A5D9884EF94E015
:1010C00060E070E044E450E00E94C81F8091F404A6
:1010D000813009F451C011E01093F40485EF94E0DD
:1010E00060E770E049E050E00E94321F83E095E045
:1010F00069E770E044E050E00E94321F87E095E02D
:101100006DE770E044E050E00E94321F8BE095E014
:1011100061E870E044E050E00E94321F1092FD044C
:1011200084E08093FE0483EA8093FF0481E280934D
:10113000000585EC8093010585E88093020580E039
:1011400091EE9093100580930F0585E4809312052E
:1011500087E38093110581E38093130588E090E095
:1011600090931505809314051093160587E195E07B
:1011700067E071E00E94611F81E0809337050E9463
:10118000DA038FEF94E3ACE081509040A040E1F7A8
:1011900000C000000E94FD1C0E94E4170E94F6039C
:1011A0000E941D075D9A8BED91E00E94CE078FEFA4
:1011B00094E3ACE081509040A040E1F700C0000013
:1011C000E091CA04F091CB0409951092C50082E227
:1011D0008093C400E0ECF0E080818260808384E250
:1011E0008093C20088E18093C10008959091C0006F
:1011F00095FFFCCF8093C60008951F93182F8A3067
:1012000019F48DE00E94F608812F0E94F6081F91C4
:101210000895EF92FF92CF93DF93E82EE7017E01CE
:10122000F92EE70102C00E94FD0889918823D9F7B1
:10123000DF91CF91FF90EF900895CF93DF93EC0172
:1012400002C00E94FD08FE01219684918823C9F7FF
:10125000DF91CF9108951F93CF93DF93182F82953D
:101260008F70C4E1D1E0FE01E80FF11D80810E9482
:10127000FD081F70C10FD11D88810E94FD0880E20A
:101280000E94FD08DF91CF911F9108950F931F9346
:10129000CF93DF93EC018B0105C089910E942B094C
:1012A0000150104001151105C1F7DF91CF911F9139
:1012B0000F9108950F931F93CF93DF93EB01082FA6
:1012C000192F0BC0F80181918F01982F90529F35F3
:1012D00008F08EE20E94FD082197209799F7DF9190
:1012E000CF911F910F9108958091C000881F88278A
:1012F000881F08958091C00087FFFCCF8091C600B1
:10130000089570E06827792748E021E230E1CB01B9
:101310009695879560FF04C0BC016227732701C0C2
:10132000BC014150A1F7CB010895E82FF92F44509B
:10133000CB01042E02C0969587950A94E2F78F7030
:10134000982F905D9A330CF0995F919314167CF36B
:10135000CF010895CF92DF92EF92FF920F931F93E8
:10136000DF93CF93CDB7DEB728970FB6F894DEBFE3
:101370000FBECDBF7C018B01C42EDD24C7FCD094F1
:1013800060E370E05D2D0E94441FC8018E010F5F75
:101390001F4FB8014AE050E00E94B21FF8010190CF
:1013A0000020E9F731974E2F401B842F90E08C15D9
:1013B0009D0524F4C81AD90AEC0CFD1C042F10E07A
:1013C000C701BE016F5F7F4F50E00E943B1F0E0DB3
:1013D0001F1DC80128960FB6F894DEBF0FBECDBF03
:1013E000CF91DF911F910F91FF90EF90DF90CF9001
:1013F0000895FC01019677FF05C0709561957F4FB8
:101400002DE201C02BE220830E94AA090895AF9229
:10141000BF92CF92DF92EF92FF920F931F93CF93E1
:10142000DF93B82E6A010B2D192FC0E0D0E0E62E15
:10143000FF24E7FCF094AA24A39417C0F80181913B
:101440008F0160E10E94A61C87FD0DC09E0164E033
:10145000220F331F6A95E1F7C82FDD27C7FDD0950E
:10146000C20FD31F02C0F601A082802F8B1990E01B
:101470008E159F051CF3CE01DF91CF911F910F9127
:10148000FF90EF90DF90CF90BF90AF900895FC0158
:10149000A081B1818C91843019F01196B183A08321
:1014A000861719F081E0FA01808308958F929F9248
:1014B000AF92BF92CF92DF92EF92FF920F931F9362
:1014C000DF93CF930F92CDB7DEB74C01B62E7901E3
:1014D00000E010E0AA24A394C42EDD24C7FCD0941D
:1014E00021C0843021F481E0D7018C9326C031964D
:1014F000D401ED93FC93642F49830E94A61C49817B
:1015000087FD0EC00C9D90010D9D300D1C9D300D72
:101510001124082F112707FD1095020F131F02C079
:10152000F701A082D401ED91FC91119780818B1578
:10153000C1F631961196FC93EE93C8010F90CF91AE
:10154000DF911F910F91FF90EF90DF90CF90BF90B0
:10155000AF909F908F900895CF93DF93FC01DB01B4
:101560001C9280E090E00FC0543019F08F3191054B
:1015700021F481E0F90180830EC001962196D18388
:10158000C0835D931C92C081D1815881541761F74B
:101590002196D183C083DF91CF9108954F925F92BE
:1015A0006F927F928F929F92AF92BF92CF92DF9273
:1015B000EF92FF920F931F93DF93CF93CDB7DEB7D8
:1015C000EC970FB6F894DEBF0FBECDBF2C01198289
:1015D0001A821C821B82FC01680F791F04C08230B2
:1015E00011F4EB83FC83DF01E617F70738F48191F0
:1015F0008430A9F78B819C810097A9F38C9184306A
:1016000041F58B819C81009721F10E96A817B907AF
:1016100000F12CEFE22E2FEFF22EEA0EFB1EC70197
:1016200064E0AE014F5F5F4F0E94070A6C010B81BF
:101630001C818FEF9FEF05C0D8016D918D010E9435
:1016400081090E151F05C0F38C159D0521F082E060
:1016500001C081E089838981882321F58B819C8168
:1016600062E08E010F5F1F4FA8010E94070A7C01F4
:101670008B819C8102969C838B8364E0A8010E94ED
:10168000070A5C018B819C8104969C838B8364E0B8
:10169000A8010E94070A4C018B819C8104969C83BF
:1016A0008B8306C088249924AA24BB24EE24FF241B
:1016B0002981C2010196222399F022E0F2012083C0
:1016C0006BE270E048E00E94950961E070E040E163
:1016D0000E94950960E070E040E10E9495092CC5E8
:1016E00022E0D2012C93B70148E00E949509B50190
:1016F00040E10E949509B40140E10E9495096C0106
:101700008B2D8730D9F08330C8F08E01045D1F4FD8
:10171000C80160E270E040E150E00E94441F82E0B6
:1017200090E062EA70E040E050E0980108E010E0EC
:101730000E948A188CA58F3309F42EC6750100E02B
:1017400010E08701FF24EE24AA24BB24E80CF91C36
:101750000A1D1B1DB0E0EB16B0E0FB06B6E00B0760
:10176000B1E01B0709F4AFC3E1E0EE16E0E0FE06CE
:10177000E6E00E07E1E01E0708F09EC0F0E0EF167D
:10178000F0E0FF06FCE00F07F0E01F0709F462C27B
:1017900021E0E21620E0F2062CE0020720E012072A
:1017A00008F043C080E0E81680E0F80685E008070E
:1017B00080E0180709F45DC191E0E91690E0F906B0
:1017C00095E0090790E0190788F4E114F104010598
:1017D000110509F413C1A0E0EA16A0E0FA06A1E0A1
:1017E0000A07A0E01A0709F0EFC52DC1B0E0EB161B
:1017F000B0E0FB06B7E00B07B0E01B0709F4C6C179
:10180000E0E0EE16E0E0FE06EAE00E07E0E01E078C
:1018100009F40BC2F0E0EF16F0E0FF06F6E00F0768
:10182000F0E01F0709F0D0C562C120E0E21620E019
:10183000F20622E0020721E0120709F493C281E0D8
:10184000E81680E0F80682E0080781E01807A8F4AF
:1018500090E0E91690E0F90690E0090791E0190799
:1018600009F435C2A0E0EA16A0E0FA06A1E00A07F2
:10187000A1E01A0709F0A8C54BC2B0E0EB16B0E032
:10188000FB06B4E00B07B1E01B0709F4B5C2E0E0CA
:10189000EE16E0E0FE06E5E00E07E1E01E0709F4C3
:1018A000C5C2F0E0EF16F0E0FF06F3E00F07F1E04D
:1018B0001F0709F089C576C220E0E21620E0F20693
:1018C00020E0020722E0120709F439C481E0E8169B
:1018D00080E0F80680E0080782E0180708F047C0BB
:1018E00090E0E91690E0F90692E1090791E0190706
:1018F00009F4A9C3A1E0EA16A0E0FA06A2E10A07EA
:10190000A1E01A07A8F4B0E0EB16B0E0FB06B0E1E6
:101910000B07B1E01B0709F41BC3E0E0EE16E0E0A3
:10192000FE06E1E10E07E1E01E0709F04DC554C3D4
:10193000F0E0EF16F0E0FF06F4E10F07F1E01F071B
:1019400009F4B5C320E0E21620E0F20625E1020723
:1019500021E0120709F4C4C380E0E81680E0F8062D
:1019600083E1080781E0180709F02EC58BC390E0DA
:10197000E91690E0F90691E0090797E0190709F4E4
:101980007FC4A1E0EA16A0E0FA06A1E00A07A7E0FA
:101990001A07A8F4B4E0EB16B0E0FB06B1E00B07C1
:1019A000B4E01B0709F406C4E0E0EE16E0E0FE0632
:1019B000E0E00E07E7E01E0709F006C530C4F0E0DE
:1019C000EF16F0E0FF06F3E00F07F7E01F0709F45A
:1019D000B8C420E0E21620E0F20629E9020729E96E
:1019E000120709F4D9C480E0E81680E0F80682E026
:1019F000080787E0180709F0E7C490C483E0E82EE1
:101A0000F12CEC0EFD1EC7016FE18E010F5F1F4F21
:101A1000A8010E94470AC7016FE140E198010E94B6
:101A2000560A009729F01092F40481E08093D901BE
:101A3000C60160E070E040E10E9495098C0181E000
:101A40008093D801DAC4C60160E070E040E10E94F2
:101A500095097C010FE1C02EDC01CD928D01CD01F5
:101A600065E271E00E94611FF701C1820F5F1F4FA5
:101A7000C4C413E0E12EF12CEC0EFD1EC7016FE192
:101A80008E010F5F1F4FA8010E94470AC7016FE137
:101A900040E198010E94560A7C01C60160E070E0B6
:101AA00040E10E9495098C018FE1D8018D938D0151
:101AB000C701805B9F4F880F991FB80143E351E036
:101AC0000E94E218009721F4C80160E070E007C0AE
:101AD000BC01672F772766956F5F7F4FC80140E194
:101AE0000E9495098C018FE1F8018193C9C28E0192
:101AF0000D5F1F4FC8016FE17E010894E11CF11CCE
:101B0000A7010E94470AC8016FE140E197010E94C6
:101B1000560A4C01C8016FE140E197010E94560A44
:101B20005C018981882309F006C3C60160E070E08A
:101B300040E10E9495097C01FFE1CF2EDC01CD92AE
:101B40008D01CD0165E371E00E94611F9701295F5E
:101B50003F4FC90160E270E04AEF51E00E94441F2C
:101B6000B401605B7F4F660F771F0894A11CB11C06
:101B70005A2D550F82E090E040E0980100E012E01D
:101B80000E948A1887010F5F1D4F78C28E010D5F7A
:101B90001F4FC8016FE17E010894E11CF11CA701F1
:101BA0000E94470AC8016FE140E197010E94560A6E
:101BB0004C01C8016FE140E197010E94560A29815A
:101BC000222309F0B8C25C010894A11CB11CBA2CF4
:101BD000AA24BB0C80E590E0880E991E880C991C05
:101BE000EE24FF24A7014A0D5B1D2B813C812E0DA5
:101BF0003F1D82E090E0B40100E410E00E9428184C
:101C0000E00EF11E90E0E91692E0F90659F78B819B
:101C10009C8180509E4F9C838B83C60160E070E066
:101C200040E10E9495098C01E8C3C60160E070E0C4
:101C300040E10E9495098C015FE1E52EDC01ED9207
:101C4000CD016CE371E00E94611FF801E48A0B5E34
:101C50001F4FD3C3C60160E070E040E10E949509C8
:101C6000A82EC92EE82EF92E8FE1D7018D937D0184
:101C70008E010B5F1F4FC8010E94BE1EEA2DFC2D76
:101C8000CF0142964AE39801D8015D918D015295AA
:101C90005F70A52FB0E0AC5EBE4F5C915183D9015F
:101CA0002C91A22FBB27A7FDB095AF70B070AC5E92
:101CB000BE4F2C91228343833396E817F90719F717
:101CC00087010E5E1F4F8FE1F701818B96C3C6011E
:101CD00060E070E040E10E9495097C014FE1C42E74
:101CE000DC01CD928D01CE010C96BE01645E7F4F6A
:101CF0000E94421AC801BE01605F7F4F4AE050E077
:101D00000E94681FF701C3868701045F1F4F75C3D8
:101D10008E010D5F1F4FC8016FE17E010894E11C29
:101D2000F11CA7010E94470AC8016DE24AE0970131
:101D30000E94560A5C01C8016DE24AE097010E94C8
:101D4000560A982EC8016FE14AE097010E94560A90
:101D5000482F8981882309F0EEC1C501692D0E94B1
:101D6000FC1B5BCFC60160E070E040E10E9495097A
:101D70006C013FE1A32EDC01AD927D018E01045E7A
:101D80001F4FCE010C96B8010E94421AC701B8013C
:101D900048E050E00E94681FF601A1868601065FB8
:101DA0001F4F2BC38E010D5F1F4FC8016FE17E01D6
:101DB0000894E11CF11CA7010E94470AC8016AE3CC
:101DC0004AE097010E94560A982EC8016AE34AE049
:101DD00097010E94560AA82EC8016FE14AE09701B8
:101DE0000E94560A482F8981882309F0A4C1892DB1
:101DF0006A2D0E94AF1B11CF88E00E94121A0E9428
:101E0000D0198C01C60160E070E040E10E949509A4
:101E10002FE1E22EDC01ED92CD01B8016454714056
:101E200043E00E94F909FC01E1922AC18E010D5F95
:101E30001F4FC8016FE17E010894E11CF11CA7014E
:101E40000E94470AC8016FE140E197010E94560ACB
:101E50004C01C8016FE140E197010E94560AA82E8B
:101E60008981882309F067C1C60160E070E040E124
:101E70000E9495097C01BFE1CB2EDC01CD928D0142
:101E8000CD0165E371E00E94611F9701295F3F4F1B
:101E9000C90160E270E04AEF50E00E94441FB401C3
:101EA00067707070605B7F4F660F771F82E090E015
:101EB00040E05A2D980100E011E00E948A18870145
:101EC0000F5F1E4FDBC08E010D5F1F4FC8016FE11A
:101ED0007E010894E11CF11CA7010E94470AC80179
:101EE0006FE140E197010E94560AF7E0AF2EB12C56
:101EF000A822B922C8016FE140E197010E94560A69
:101F00009981992309F017C1982E882480E590E0E3
:101F1000A80EB91EAA0CBB1CEE24FF24A701480D75
:101F2000591D2B813C812E0D3F1D82E090E0B501B3
:101F300000E410E00E942818E00EF11E90E0E9167F
:101F400091E0F90659F78B819C8180509F4F63CEB9
:101F50008E010D5F1F4FC8016FE17E010894E11CE7
:101F6000F11CA7010E94470AC8016FE140E19701F7
:101F70000E94560A5C01C8016FE140E197010E948E
:101F8000560A4C01C8016FE140E197010E94560AD0
:101F90008C018981882309F0CEC0C60160E070E021
:101FA00040E10E9495097FE1C72EDC01CD927D01C1
:101FB000C501B401A8019E012E5F3F4F01E010E072
:101FC0000E948A186A81772767FD7095C70148E0EB
:101FD0000E9495098C0152C08E010D5F1F4FC801F0
:101FE0006FE17E010894E11CF11CA7010E94470AE1
:101FF000C8016FE140E197010E94560A5C01C801E7
:102000006FE140E197010E94560A4C01C8016FE15F
:1020100040E197010E94560A3C01C8016FE140E18E
:1020200097010E94560A8A838981882309F083C018
:10203000C501B401A3019E012E5F3F4F01E010E0F6
:102040000E942818EACDC60160E070E040E10E94DD
:1020500095096FE1C62EDC01CD927D01CD0167E1CE
:1020600075E00E94611FD7010D900020E9F78D01F6
:10207000015010400E191F090E0D1F1DF801C192CD
:102080008F01BBC153E0E52EF12CEC0EFD1EC70104
:102090006FE18E010F5F1F4FA8010E94470AC70121
:1020A00067E175E04FE198010E94AC0A40C0C601AB
:1020B00060E070E040E10E949509FC01DC018FE1E5
:1020C0008D93809116058D010F5F1F4F882311F0AE
:1020D00089E501C08EE481838FE1D8018D938CC1A5
:1020E000CE0103966FE1AE014F5F5F4F0E94470A3A
:1020F000EB81FC818081893511F0893721F481E001
:102100008093160509C08E3411F08E3619F41092A2
:10211000160502C081E089833196FC83EB83CE01F2
:1021200003966FE1AE014F5F5F4F0E94470A8981BE
:10213000882309F426C1C60168E070E071CD43E050
:10214000E42EF12CEC0EFD1EC7016FE18E010F5F36
:102150001F4FA8010E94470AC7016FE14AE098019A
:102160000E94560A8630910510F021E029832981CA
:10217000222391F40E94121A0E94D0198C01C601E8
:1021800060E070E040E10E9495093FE1E32EFC0130
:10219000E192CF01B801D1C0C60168E070E040E132
:1021A0000E9495092FE1E22EFC01E192CF0160E04F
:1021B00070E0C3C0C60160E070E040E10E94950994
:1021C0008C018FE1F80181938F0188E00E94121A3F
:1021D0000E94D019BC0164547140C80143E00E94C0
:1021E000F9098C018EE1D8018D938D0120E08EE1FB
:1021F000E82E822F2CAF0E94121A0E94D019BC0127
:10220000C80144E00E94AA098C012CAD253019F0C8
:10221000FC01E1928F012F5F263059F75DCFC60197
:1022200060E070E040E10E9495091FE1FC0111931C
:10223000CF0160910F057091100540E00E94AA093E
:102240002CE2FC01219330911205DC0111963C93A4
:10225000DF0111962183FD013196809111051196C0
:102260008C93DF0111962183FD0131968091130536
:1022700011968C93119711838F010E5F1F4FBDC074
:102280008E010D5F1F4FC8016FE17E010894E11CB4
:10229000F11CA7010E94470AC8016CE24AE09701BD
:1022A0000E94560A5C01EB81FC8181918A83FC8348
:1022B000EB83C8016CE2A7010E94470AEB81FC8115
:1022C0008190FC83EB83C8016CE2A7010E94470A5E
:1022D000EB81FC819190FC83EB83C8016FE1A70146
:1022E0000E94470AC5016A81482D292D0E94C31CFE
:1022F000882311F481E089838981882309F01BCF29
:10230000B0921005A0920F058A81809312058092E9
:102310001105909213050E94FD1C33C0C60160E0B8
:1023200070E040E10E949509BFE1EB2EFC01E192D3
:10233000CF01609114057091150544E00E94AA092F
:1023400040C0A3E0EA2EF12CEC0EFD1EC7016FE1A8
:102350008E010F5F1F4FA8010E94470AC7016FE15E
:102360004AE098010E94560AB0E180309B0708F0CD
:10237000E2CE2981222309F0DECE909315058093C9
:102380001405C60160E070E040E10E9495098C01EF
:1023900081E08093D90131C0C60160E870E040E17E
:1023A0000E949509FFE1EF2EFC01E192CF0169E95E
:1023B00079E940E10E94950960E070E040E10E9407
:1023C0009509DC01ED9218C0C60160E270E040E1C1
:1023D0000E949509EFE1CE2EFC01C192CF01980138
:1023E00044275527B90140E10E949509B70140E112
:1023F0000E949509DC01CD928D0172010894E11CC7
:10240000F11C6FEF7FEF07C0CB01F70161917F01F6
:102410000E948109BC01E016F106B0F3C80140E159
:102420000E949509FC0124E021932DE0DC01119626
:102430002C9311978AE081839F012E5F3F4F2419CF
:102440003509C901EC960FB6F894DEBF0FBECDBFBB
:10245000CF91DF911F910F91FF90EF90DF90CF9080
:10246000BF90AF909F908F907F906F905F904F90B4
:102470000895CF93DF93EC010E947409882369F0DB
:10248000CE0160E00E94C01DBC01CE010E94CE0AB8
:10249000BC01CE0140E00E94471DDF91CF9108951D
:1024A0000F931F93CF93DF93EC01DB010D9000207E
:1024B000E9F78D0101501040061B170B96E79CA30E
:1024C0008FE58DA39AA38BA3C80108969EA3802FA6
:1024D000885F8FA38FEF8E8F8F8F88A389A3B8011A
:1024E000645E7F4FCE0141E10E944E04CE0161E067
:1024F00071E00E941E04B801605F7F4FAE01485D2D
:102500005F4FCE014A9621E00E941A03C8018A96C5
:10251000BE010E940D02DF91CF911F910F9108958E
:102520008F929F92AF92BF92CF92DF92EF92FF92E3
:102530000F931F93DF93CF93CDB7DEB7A0970FB65E
:10254000F894DEBF0FBECDBF4C013AE2E32EF12C72
:10255000E80EF91ECE010196BE016F5E7F4F0E940C
:10256000421AC70160E571E00E94611FD7019A9687
:10257000FE0135968AE001900D928150E1F7D70176
:10258000DC96FE01719688E001900D928150E1F792
:10259000D7010D900020E9F7BD01615070406E1920
:1025A0007F096E0D7F1D88EE94E00E946307C701CE
:1025B0006BE971E00E944B1FD7010D900020E9F7F5
:1025C000BD016E197F09695F7F4F6E0D7F1D82EA25
:1025D00090E042EA51E00E94E218009731F4C7010E
:1025E0006FEA71E00E944B1F28C02CE0A22E22E06F
:1025F000B22EA80EB91ED7010D900020E9F76D018B
:102600000894C108D108CE18DF08CE0CDF1C01C029
:102610006C01A5010894A11CB11C82E090E062EA63
:1026200070E0960101E010E00E948A18C601019650
:10263000F60120812C3361F71082C70167EB71E04E
:102640000E944B1FC401B7010E945012A0960FB602
:10265000F894DEBF0FBECDBFCF91DF911F910F91D8
:10266000FF90EF90DF90CF90BF90AF909F908F90B2
:1026700008951F93CF93DF93EC01162F8A96FC01E8
:1026800086E191E0DF019C011D9221503040E1F78D
:1026900081E08AA78BA786E08CA78AE58EA785EACA
:1026A0008FA78AEA88AB85E589AB80E88CABEDEF34
:1026B000F4E0DE01AA5BBF4F81918D9335E0E330FA
:1026C000F307D1F7CE018A5E9E4F6FE870E044E0D9
:1026D00050E00E94321FFE01E65EFE4F85E38083DC
:1026E000FE01E55EFE4F81E08083FE01E45EFE4F69
:1026F00010831130B1F4FE01E35EFE4F87E3808367
:10270000FE01E25EFE4F82E08083FE01E15EFE4F4D
:102710001083FE01E05EFE4F83E0808381E291E062
:102720004BC0133009F046C0FE01E35EFE4F82E36A
:102730008083FE01E25EFE4F84E08083FE01E15E65
:10274000FE4F9091DA049083FE01E05EFE4F90917F
:10275000DB049083FE01EF5DFE4F9091DC049083DB
:10276000FE01EE5DFE4F9091DD049083FE01ED5D74
:10277000FE4F96E39083FE01EC5DFE4F8083FE01E9
:10278000EB5DFE4F8091E0048083FE01EA5DFE4F29
:102790008091E1048083FE01E95DFE4F8091E204B7
:1027A0008083FE01E85DFE4F8091E304808389E22F
:1027B00091E002C08DE191E0FE01E80FF91F2CE0ED
:1027C00020839C012F5F3F4FBE01620F731FDB010F
:1027D0001C922F5F3F4F45EF54E0FC013296EC0F07
:1027E000FD1F07C081932F5F3F4FDB018C918F5FEF
:1027F0008C93DA018D91AD018823A1F7C20FD31F0D
:102800008FEF888329523040C901DF91CF911F910A
:1028100008950F931F93CF93DF93EC010E94391318
:102820008C011CA283E48DA31AA284E48BA3C801AB
:1028300008969EA3802F885F8FA38FEF8E8F8F8F38
:1028400088A389A3B801645E7F4FCE0141E10E9455
:102850004E04CE0161E071E00E941E04B801605F89
:102860007F4FAE01485D5F4FCE014A9621E00E9446
:102870001A03C8018A96BE010E940D02DF91CF9112
:102880001F910F9108950F931F93CF93DF93FC0136
:10289000142F81E06D31780708F446C187898131B2
:1028A00009F042C121E030E083A1833411F020E03F
:1028B00030E081E090E042A1442311F080E090E01C
:1028C0002823392391E085A1843409F090E081E048
:1028D00044A1411180E0892390E082239323009753
:1028E00009F422C121E030E081A9853511F020E012
:1028F00030E081E090E040A94A3A11F080E090E0B9
:102900002823392391E087A5853A09F090E081E0FA
:1029100046A54A3509F080E0892390E0822393237D
:10292000009709F401C182A5823009F0FDC0DF01E2
:10293000AA5EBE4F83E68C93DF01A85EBE4F21E006
:102940008C91833509F020E0DF01A95EBE4F81E064
:102950009C91923809F080E0282330E0DF01A75EE7
:10296000BE4F81E090E04C91433611F080E090E062
:1029700082239323009709F4D7C0AAE1B1E081E054
:102980009D012F5F3F4FAE0FBF1F9C91953381F08C
:10299000963338F4913009F493C0933009F0B5C000
:1029A0006AC0963309F442C09F3F09F0AEC0BDC073
:1029B000D90111962E0F3F1FE9019881913009F03E
:1029C000ADC0EF01CA0FDB1F0881023071F4123075
:1029D00061F422AD33AD44AD55AD2093DA043093AC
:1029E000DB044093DC045093DD0491E0153009F0E2
:1029F00090E0053091F4992381F02091DA04309130
:102A0000DB044091DC045091DD042093E804309312
:102A1000E9044093EA045093EB042881263009F03E
:102A200072C0992309F46FC08FEF6DC0D901119660
:102A30002E0F3F1FE9019881943009F06FC0EF011C
:102A4000CA0FDB1F98819093E0041196EF01CA0F23
:102A5000DB1F98819093E1041196EF01CA0FDB1FF1
:102A600098819093E2041196EF01CA0FDB1F9881C1
:102A70009093E30448C0D90111962E0F3F1FE9013E
:102A80009881943009F04AC0EF01CA0FDB1F98818A
:102A90009093EC041196EF01CA0FDB1F988190937D
:102AA000ED041196EF01CA0FDB1F98819093EE049D
:102AB0001196EF01CA0FDB1F98819093EF0423C09A
:102AC000D90111962E0F3F1FE9019881943031F5FD
:102AD000EF01CA0FDB1F98819093F0041196EF016C
:102AE000CA0FDB1F98819093F1041196EF01CA0F72
:102AF000DB1F98819093F2041196EF01CA0FDB1F40
:102B000098819093F30411960AC0DF01A20FB31FBE
:102B10009C91D9011196A90FB11D01C08FEFA61785
:102B2000B70708F42DCF01C080E0DF91CF911F914E
:102B30000F9108950F931F93CF93DF93EC018B01B7
:102B40000E94EB03882321F41092BA011092B9017C
:102B50008091B9019091BA018330910509F473C055
:102B60008430910540F48130910501F18230910566
:102B700008F04FC00DC08530910509F4A3C0853021
:102B8000910508F492C08630910509F0DDC0CCC0F3
:102B90000E94EB03882331F081E090E09093BA012A
:102BA0008093B90189EC80930001CEC001E00093CD
:102BB000DE0481E00E94EE03809137058823D1F086
:102BC0001092DA041092E8041092DB041092E904E7
:102BD0001092DC041092EA041092DD041092EB04CF
:102BE00082E090E09093BA018093B90184E68093EB
:102BF00000010AC00E94F60386E090E09093BA01BB
:102C00008093B9010093000110923D051092DF04FA
:102C10009BC080913D05833008F496C080E00E94FF
:102C2000EE03CE0161E00E94091483E090E09093EE
:102C3000BA018093B90110923D058091DF048F5F46
:102C40008093DF0481C020913D054091DF0430E096
:102C500086E0489FC00111242817390734F082E02C
:102C600090E09093BA018093B901463058F00E94E9
:102C7000F60386E090E09093BA018093B90181E079
:102C8000809300010115110509F45EC0CE01B80161
:102C900042E00E944314882309F456C084E090E087
:102CA0009093BA018093B9014FC0CE0163E00E94B6
:102CB000091485E090E09093BA018093B9011092D5
:102CC0003D0542C080913D05843030F082E090E0C7
:102CD0009093BA018093B90101151105A9F1CE01B4
:102CE000B80145E00E944314882371F18091DA0411
:102CF0008093E8048091DB048093E9048091DC04F4
:102D00008093EA048091DD048093EB0486E090E0F8
:102D10009093BA018093B9011092000110923D0581
:102D200081E00E94EE0310C08091DE04813061F4E6
:102D300080913D05833040F00115110529F4CE0145
:102D40000E9490121092DE04DF91CF911F910F919B
:102D50000895CF93DF93EC018A9620E3DC011D9266
:102D60002A95E9F765E870E04AE050E00E94321FDA
:102D70001CA28BE78DA38DE78AA381E08BA31EA203
:102D800088E38FA38091D0048E8F8091D1048F8FA0
:102D90008091D20488A38091D30489A3CE016CE4EE
:102DA00070E041E10E944E04CE0164ED74E00E94A7
:102DB0001E04AE01485D5F4FCE014A9660E470E0AC
:102DC00021E00E941A038AE590E0BE010E940D02F4
:102DD000DF91CF910895FC016A35710528F187894B
:102DE000813121F521E030E083A18B3711F020E023
:102DF00030E081E090E042A1442311F080E090E0D7
:102E00008223932331E025A1213009F030E021E035
:102E100044A14D3709F020E0232330E02823392353
:102E200081E02115310519F480E0089580E00895CE
:102E3000CF93DF93EC018091BB019091BC01813075
:102E4000910511F18130910548F08230910509F426
:102E500045C08330910509F0B4C058C080913E054B
:102E60008C3308F4AEC010923E0580913F0581502E
:102E700080933F05882309F0A4C081E090E09093FF
:102E8000BC018093BB019DC080911605882309F485
:102E900098C080910001823008F093C087E195E0EE
:102EA00060ED74E00E94A007882309F48AC084EDD5
:102EB00094E060ED74E00E94F905882349F082E017
:102EC00090E09093BC018093BB0110923E0579C0C5
:102ED0001092BC011092BB0185E071C00E941206E5
:102EE000882349F0CE010E94A91683E090E09093D8
:102EF000BC018093BB0180913E05803108F461C024
:102F00001092BC011092BB0182E059C0CE010E9418
:102F1000EB16882309F44AC0F894FE01EE5AFF4FDD
:102F2000808190E0A0E0B0E0B82FAA2799278827F9
:102F3000FE01ED5AFF4F208130E040E050E0A90152
:102F400033272227822B932BA42BB52BFE01EB5A80
:102F5000FF4F208130E040E050E0822B932BA42BE8
:102F6000B52BCC5ADF4F288130E040E050E0542FA1
:102F7000432F322F2227822B932BA42BB52B805843
:102F80009E47AA4AB34878948093390590933A05AE
:102F9000A0933B05B0933C0581E08093CF04109251
:102FA000BC011092BB0188E780933F0580913E05EC
:102FB0008F3138F01092BC011092BB0181E08093F8
:102FC0003F05DF91CF91089587B18F7C87B988B194
:102FD000806388B988E48093B8008CEF8093B9004F
:102FE000089584688093BC008091BC0087FFFCCF6B
:102FF0008091B900887F089580E20E94F1170895BA
:1030000084E98093BC008091BC0084FDFCCF80E10A
:103010008A95F1F708958093BB0080E00E94F11734
:103020000895882321F080E40E94F117089580E03C
:103030000E94F11708951F93182F0E94FC17812FEB
:103040000E940B188831C9F70E9400181F9108953B
:103050008F929F92BF92CF92DF92EF92FF920F9347
:103060001F93DF93CF930F92CDB7DEB74C01F42EB1
:10307000E52ED22EC32E69830E94FC176981883009
:1030800011F0803141F58EEFB82EB6228B2D0E94C3
:103090000B18883101F522E08216910429F48E2D57
:1030A0000E940B188832B9F408948108910832E024
:1030B0008316910498F48F2D0E940B18883259F4CE
:1030C0000DC0F80181918F010E940B180894E1084E
:1030D000F108883249F08091B9000FC0402F512F7C
:1030E0007A01C601092F1C2DE114F10451F70E9449
:1030F00000188B2D0E941B1880E00F90CF91DF915C
:103100001F910F91FF90EF90DF90CF90BF909F9015
:103110008F900895BF92CF92DF92EF92FF920F931C
:103120001F93CF93DF93EC01D62EC42EB52E7901D9
:103130000E94FC17883011F0803161F58D2D8E7F53
:103140000E940B18883131F5C230D10529F48B2D3E
:103150000E940B188832F1F42197C230D10528F46F
:103160008C2D0E940B188832A9F40E94FC17803124
:1031700089F48D2D81600E940B18803459F412C09F
:103180000150104081E009F480E00E941118877F0F
:10319000803519F08091B9000BC08091BB00F70118
:1031A00081937F010115110559F70E94001880E0F5
:1031B000DF91CF911F910F91FF90EF90DF90CF9013
:1031C000BF9008956F927F928F929F92AF92BF921D
:1031D000CF92DF92EF92FF920F931F93CF93DF93E3
:1031E0004C016B013A01C0E0D2E0A12C21E0B22EEB
:1031F000CE0180509F4F8C179D0720F47501E81A6F
:10320000F90A03C0E12C91E0F92E82E090E0B401CC
:10321000AE01960187010E948A18F601EE0DFF1D8E
:103220001082C601B3010E94771F009739F0C05089
:10323000D2408C199D09C80FD91F0AC020E0E216A0
:1032400021E0F20619F4C051DF4FD2CFC0E0D0E048
:10325000CE01DF91CF911F910F91FF90EF90DF9002
:10326000CF90BF90AF909F908F907F906F90089578
:103270000F931F93182F062F0E94FC17883011F010
:10328000803159F4812F80670E940B18883129F40E
:10329000802F0E940B18883219F08091B90003C06A
:1032A0000E94001880E01F910F9108951F930E94C3
:1032B000E4178FEF95EAAEE081509040A040E1F72F
:1032C00000C0000080E090E06CE10E943819882383
:1032D00009F064C08FEF91EEA4E081509040A040CF
:1032E000E1F700C0000080E090E064E10E9438193E
:1032F00080E090E069E00E94381980E090E068E3A7
:103300000E94381980E090E068E40E94381982E059
:1033100090E061E40E94381982E090E062E40E944B
:10332000381982E090E063E40E94381982E090E06E
:1033300061E30E94381982E090E062E30E9438194C
:1033400082E090E068E70E94381910E480E090E0A5
:10335000612F0E9438198FEF91EEA4E081509040C8
:10336000A040E1F700C000001F5F103579F710E4BE
:1033700080E090E0612F0E9438198FEF91EEA4E079
:1033800081509040A040E1F700C000001F5F103561
:1033900079F780E090E06FE40E9438191F9108955A
:1033A00020917A00206820937A0020917A00206191
:1033B00020937A0020917A00206420937A00209153
:1033C0007A0024FFFCCF20917A00206120937A00BC
:1033D00068E020E030E040917A00406440937A0059
:1033E00040917A0044FFFCCF4091780050917900E1
:1033F000952F80E0FC01E40FF11D2E0F3F1F40913F
:103400007A00406140937A00615029F780917A00F8
:103410008F7780937A0083E0369527958A95E1F738
:10342000C9010895843019F0853019F003C08EE089
:1034300001C08FE08F70806C80937C0087E8809360
:103440007A000E94D0190895613011F4845E0895C5
:10345000673008F0615060FF02C08EE108958FE18F
:103460000895CF93DF93FC01EC0109900020E9F768
:103470002397C817D90711F080E38293CF01DF911A
:10348000CF9108952F923F924F925F926F927F92C9
:103490008F929F92AF92BF92CF92DF92EF92FF9264
:1034A0000F931F93DF93CF93CDB7DEB729970FB656
:1034B000F894DEBF0FBECDBF6C011B01F894609184
:1034C000390570913A0580913B0590913C0520E8C3
:1034D000E22E21E5F22E21E0022F112DA801970105
:1034E0000E94101F2B013C016091390570913A0533
:1034F00080913B0590913C05A80197010E94101F07
:10350000790178949CE3892E912CA12CB12CC301D4
:10351000B201A50194010E94101F6F83C301B20183
:1035200020E13EE040E050E00E94101F022FA50184
:1035300094010E94101F28870987C701049667E03D
:1035400070E00E94FC1EA82E02EB17E024E630E09B
:10355000E0E9F1E018C08114910461F4C801B901F7
:103560000E94FC1E009749F4C801BF010E94FC1E86
:10357000009719F08DE691E002C08EE691E0E81A1E
:10358000F90A0F5F1F4F83E0882E912C8022912231
:103590008114910461F4C801B9010E94FC1E0097D6
:1035A00049F4C801BF010E94FC1E009719F08DE686
:1035B00091E002C08EE691E0E816F90660F6C801D7
:1035C00064E670E00E94FC1E2C01C80160E971E015
:1035D0000E94FC1E3C01BB2416C08114910441F4DE
:1035E0004114510441F481E090E06114710429F028
:1035F00080E090E002C081E090E06B2D0E94241AF0
:10360000E81AF108B3948114910441F4411451046F
:1036100041F481E090E06114710429F080E090E0D1
:1036200002C081E090E06B2D0E94241A90E0E81621
:10363000F90698F623E08A2D829F90011124D60185
:1036400080E090E0FC01E20FF31FED56FF4FE491A4
:10365000ED93019683309105A9F780E2F60183830B
:103660001482C801BE016F5F7F4F4AE050E00E94A4
:10367000911FBC01C6010E944B1FC6016DEB71E09A
:103680000E944B1F8B2D90E08E010E5F1F4F019605
:10369000B8014AE050E00E94911F0E94311ABC011B
:1036A000C6010E944B1FC6016DEB71E00E944B1FCB
:1036B000C7010196B8014AE050E00E94911F0E94A4
:1036C000311ABC01C6010E944B1F898590E0B801E8
:1036D0004AE050E00E94911F0E94311ABC01C101D2
:1036E0000E94611FC1016FEB71E00E944B1F888532
:1036F00090E0B8014AE050E00E94911F0E94311A08
:10370000BC01C1010E944B1FC1016FEB71E00E941F
:103710004B1F8F8190E0B8014AE050E00E94911F5A
:103720000E94311ABC01C1010E944B1F29960FB69D
:10373000F894DEBF0FBECDBFCF91DF911F910F91E7
:10374000FF90EF90DF90CF90BF90AF909F908F90C1
:103750007F906F905F904F903F902F900895BF9211
:10376000CF92DF92EF92FF920F931F93C82EB62E47
:10377000D42EF8946091390570913A0580913B05FB
:1037800090913C0520E831E541E050E00E94101F97
:10379000B90180E090E020E831E541E050E00E948E
:1037A000DD1E7B018C01ED0CF11C011D111D6C2D2A
:1037B00070E080E090E02CE330E040E050E00E94D8
:1037C000DD1E6B0D711D811D911D0E94DD1EE60E1B
:1037D000F71E081F191FE0923905F0923A05009371
:1037E0003B0510933C0578941F910F91FF90EF904B
:1037F000DF90CF90BF9008956F927F928F929F92AB
:10380000AF92BF92CF92DF92EF92FF920F931F93EE
:10381000DF93CF930F92CDB7DEB79C01E62EE2EB9C
:10382000F7E000E010E074E6A72EB12C60E9C62EA8
:1038300061E0D62E19C0CF0183709070009761F4BB
:10384000CF01B5010E94FC1E009749F4CF01B601DB
:103850000E94FC1E009719F08DE691E002C08EE6F2
:1038600091E0080F191F3196E217F30720F3C90101
:1038700064E670E00E94FC1E4C01C90160E971E041
:103880000E94FC1E5C0166247724FF240894E10852
:10389000F10853E0C52ED12CC222D3221AC0C11484
:1038A000D10441F48114910441F481E090E0A11429
:1038B000B10429F080E090E002C081E090E0662D44
:1038C0000894611C711C49830E94241A080F111D61
:1038D00049816E147F0418F3F894A0903905B090D4
:1038E0003A05C0903B05D0903C0550E04150504017
:1038F000400F511FBA0180E090E020E831E541E03F
:1039000050E00E94DD1E7B018C01C601B5010E94C2
:10391000101FE60EF71E081F191FE0923905F092DE
:103920003A0500933B0510933C0578940F90CF9196
:10393000DF911F910F91FF90EF90DF90CF90BF909C
:10394000AF909F908F907F906F900895982F905395
:103950009A3010F4892F0DC0982F9154963010F49E
:10396000875307C0982F9156963010F4875501C0A1
:103970008FEF282F332727FD309570E02617370764
:103980000CF08FEF08951F93DF93CF930F92CDB775
:10399000DEB7122F21EE8030920741F0E5E2803849
:1039A0009E0721F0F4E0803B9F0701F5772767FD34
:1039B000709581EC91E049830E94561F49810097E0
:1039C000A9F0642F772767FD709588EC91E00E943D
:1039D000561F009759F0612F772767FD70958BEC84
:1039E00091E00E94561F21E0009709F420E0822F09
:1039F0000F90CF91DF911F91089580910F059091C5
:103A0000100525E28038920769F021EE8030920798
:103A100029F024E0803B9207C9F40DC01092C50044
:103A20008AE103C01092C50082EA8093C4008091AD
:103A3000C000826009C082E08093C5008AE880935C
:103A4000C4008091C0008D7F8093C00090911205CA
:103A5000953621F0953411F080E001C080E29F3668
:103A600011F09F3409F4806390911305923309F4A7
:103A70008860982F946020911105283311F4982FB5
:103A800096609093C20088E18093C10008959F9250
:103A9000AF92BF92CF92DF92EF92FF920F931F935C
:103AA000CF93DF938C01EB01A42EBB242FC0219771
:103AB000F801808121E030E0853211F020E030E033
:103AC0002A213B2178010894E11CF11C21153105C4
:103AD000D1F067010894C11CD11CF801818160E11B
:103AE0000E94A61C982E86010F5F1F4FF70181814F
:103AF00060E10E94A61C929490EF9922890D0E9489
:103B0000F608229703C087010E94F608209779F6ED
:103B1000DF91CF911F910F91FF90EF90DF90CF90A9
:103B2000BF90AF909F900895CF93DF93442311F1FE
:103B3000262F20522F35F0F0FC0125E22193262F6D
:103B40002595259525952595C22FDD27C7FDD0956F
:103B5000CC5EDE4F2881DC0111962C93A62FBB276B
:103B6000A7FDB095AF70B070AC5EBE4F8C918183F5
:103B7000329602C0FC016193CF01DF91CF9108958D
:103B8000CF92DF92EF92FF920F931F93DF93CF9329
:103B90000F92CDB7DEB76C01F62E109240058C0166
:103BA000EE240E9474098823E9F00E947A09282FE4
:103BB000823011F0EE20B1F0C801622F4F2D298321
:103BC0000E94941D8C012981243051F46DE04F2D09
:103BD0000E94941D6AE04F2D0E94941D8C0117C015
:103BE000EE24E3942091400530E0809114059091FB
:103BF0001505880F991F880F991F2817390738F462
:103C0000C8018C199D0922E08F3B920754F20C19D0
:103C10001D09C8010F90CF91DF911F910F91FF9067
:103C2000EF90DF90CF900895579820E32A95F1F711
:103C300089B19AE69A95F1F700C099B120E32A95E7
:103C4000F1F797FF0BC0992787FD90958095909588
:103C5000392F331F3327331F832F089580E090E0DF
:103C60000895579A5F9A8FE599E00197F1F700C0A0
:103C700000000895579A28E030E087FF07C05F985A
:103C80009AE69A95F1F700C05F9A06C05F9A9AE6A5
:103C90009A95F1F700C05F989AE69A95F1F700C0FF
:103CA0002150304011F0880FE8CF5F988AE68A955E
:103CB000F1F700C05F9A9AE69A95F1F700C00E946A
:103CC000141E08955F9880E28A95F1F785E50E94B9
:103CD0003A1E08959F92AF92BF92CF92DF92EF92D9
:103CE000FF920F931F93CF93DF936B01E82EF92E72
:103CF000C0E0D0E05B010894A108B10830C008E042
:103D000010E099240E94141E292D30E0220F331F49
:103D100091E0882309F490E0992E922A01501040F6
:103D200089F7579ACA15DB0551F45F9A8AE68A9596
:103D3000F1F700C05F98EAE6EA95F1F709C05F98ED
:103D4000FAE6FA95F1F700C05F9A8AE68A95F1F7EC
:103D500000C00E94141EF70191927F012196CC159C
:103D6000DD056CF2DF91CF911F910F91FF90EF90E5
:103D7000DF90CF90BF90AF909F900895CF93DF9347
:103D8000EC01F8940E94311E0E94621E80EA0E949B
:103D90003A1E83E00E943A1E80E00E943A1E8AEF9B
:103DA0000E943A1ECE0166E070E00E946A1E0E94E8
:103DB000311E7894DF91CF910895629FD001739F57
:103DC000F001829FE00DF11D649FE00DF11D929FB7
:103DD000F00D839FF00D749FF00D659FF00D9927F6
:103DE000729FB00DE11DF91F639FB00DE11DF91F1A
:103DF000BD01CF0111240895AA1BBB1B51E107C0CF
:103E0000AA1FBB1FA617B70710F0A61BB70B881F6A
:103E1000991F5A95A9F780959095BC01CD010895F9
:103E2000A1E21A2EAA1BBB1BFD010DC0AA1FBB1FBE
:103E3000EE1FFF1FA217B307E407F50720F0A21B30
:103E4000B30BE40BF50B661F771F881F991F1A949D
:103E500069F760957095809590959B01AC01BD01C7
:103E6000CF010895FB01DC0102C005900D92415085
:103E70005040D8F70895FB01DC0102C001900D927B
:103E800041505040D8F70895DC0101C06D93415076
:103E90005040E0F70895FB01DC010D900020E9F7A8
:103EA000119701900D920020E1F70895FC01819196
:103EB000861721F08823D9F7992708953197CF01E4
:103EC0000895FB01DC0101900D920020E1F70895B7
:103ED000FB01DC014150504048F001900D92002060
:103EE000C9F701C01D9241505040E0F70895FB0111
:103EF00051915523A9F0BF01DC014D9145174111A6
:103F0000E1F759F4CD010190002049F04D914015A1
:103F10004111C9F3FB014111EFCF81E090E001971E
:103F20000895FB019F01E8944230C4F04532B4F497
:103F30004A3029F497FB1EF4909581959F4F642F8A
:103F400077270E94FC1E805D8A330CF0895D819387
:103F5000CB010097A1F716F45DE251931082C901DD
:103F60000C94F01FFB019F01423074F0453264F461
:103F7000642F77270E94FC1E805D8A330CF0895DD8
:103F80008193CB010097A1F71082C9010C94F01F17
:103F9000DC01CB01FC01F999FECF06C0F2BDE1BD09
:103FA000F89A319600B40D9241505040B8F70895F8
:103FB000DC01CB0103C02D910E94E31F4150504012
:103FC000D0F70895262FF999FECF1FBA92BD81BD73
:103FD00020BD0FB6F894FA9AF99A0FBE019608958B
:103FE000DC01FC01672F71917723E1F7329704C060
:103FF0007C916D9370836291AE17BF07C8F30895EB
:04400000F894FFCF62
:10400400C8FFFFFFFFFFFF3133342E3133302E342E
:104014002E31370030313233343536373839616236
:10402400636465660050696E6720726573706F6EB5
:1040340073650003004E4F444154410076312E31E4
:1040440030202D207265766973696F6E20333000DD
:104054005B7461726765743D73746172696E6574D3
:104064005D205B616374696F6E3D646973636F7631
:1040740065725D205B646174653D595959592D4DD4
:104084004D2D44445D205B74696D653D48483A4E4E
:104094004E3A53535D205B69703D005D205B69645B
:1040A4003D003C4964656E7469666965723E0055FD
:1040B4004E4B4E4F574E005D00010001002D003A5B
:0E40C4000045654F6F4E6E00373800313200F8
:00000001FF
